:100000000C94C2110C9466000C9467000C94680068
:100010000C9469000C946A000C946B000C946C00B6
:100020000C946D000C946E000C9481000C94820072
:100030000C94CE000C94CF000C94D5000C94D600F8
:100040000C94D7000C94D8000C94D9000C94DA00CE
:100050000C94DB000001FC0D7C0B01800B01A10B5B
:1000600001CC0B02F70B07230C012B0C018E0C01AA
:10007000B70C05010E30BE0C01CA0C13CE0C01DA10
:100080000C01F90C01FF0C010E0D012B0D01570D98
:10009000019F0D01010E01010E01BC0D01C20D01F8
:1000A000C70D0AD00D01DB0D01E60D01F10DFB00BE
:1000B0000000BC0E0B00280E330E440E580E610ECD
:1000C000710E7E0E870EA40EAE0EB80E1895189502
:1000D000189518951895189518951895FA93EA9308
:1000E0001A930A931FB70091700202BFEEE6F2E086
:1000F0000081039500831FBF09911991E991F9913E
:1001000018951895FA93EA933A932A931A930A93B7
:100110003FB70BB1009381020AB1009382020CB188
:100120000093830200E00093CC02EDECF2E000814A
:100130000B7F0083009181020871002331F0EDEC08
:10014000F2E000810260008321C020918202E4E895
:10015000F2E00091C50210E0000F111FE00FF11F47
:100160002183209183020091C50210E0000F111F2E
:10017000F801EC57FD4F2083E5ECF2E00081039598
:100180000083E5ECF2E000810F7100833FBF09912D
:10019000199129913991E991F991189518950A9336
:1001A00001E00093CA0209911895189518951895C1
:1001B000189518951895189501D0089500E00093AA
:1001C0002102009121020430C0F42FEFE5E1F2E0BA
:1001D0000091210210E0E00FF11F248B2FEFE5E1E9
:1001E000F2E00091210210E0E00FF11F208BE5E129
:1001F000F2E0048503950487E4CF00E00093160243
:100200000895102F193110F004E0089510931D0285
:1002100002E00093160200E00895BA93AA93D80171
:1002200000911602025049F00A9521F10A9509F44D
:100230004FC10A9509F469C16AC1E0EAF0E0009192
:100240001D0210E0E00FF11FE75DFE4F00810093FB
:100250001F02E0EAF0E000911D0210E00F5F1F4F67
:10026000E00FF11FE75DFE4F00810093200203E0E5
:100270000093160200911F0210912002011708F04E
:1002800022C1E0EAF0E000911F0210E0E00FF11F50
:10029000EA5FFE4F008100931E02E5E1F2E0028575
:1002A00003950287E0EAF0E000911E0210E0E00F03
:1002B000F11F048500932102E5E1F2E00185039539
:1002C0000187009121020F7000931A02E0EAF0E02A
:1002D00000911E0210E0E00FF11F0485009321023F
:1002E000E5E1F2E0018503950187009121020F709D
:1002F000009323020091210202950F7000931B02CC
:10030000E0EAF0E000911E0210E0E00FF11F04852A
:1003100000932102E5E1F2E0018503950187009158
:1003200021020F7000931C020091210202950F70B0
:100330000093240200E0009318020091180210912B
:100340001A02011740F5E0EAF0E000911E0210E009
:10035000E00FF11F048500932202E5E1F2E0018540
:10036000039501874091220205E112E020912202CB
:1003700030E0F901E056FF4F208130E0020F131FFB
:10038000F8010089401709F075CFE5E1F2E003813B
:1003900003950383D2CF00912302002341F100E0B3
:1003A0000093180200911802109123020117F8F42B
:1003B00000911E02102F139510931E02E0EAF0E048
:1003C00010E0E00FF11F048510E0000F111FF8018D
:1003D000ED51FE4F00811181F8010995002309F4C8
:1003E00049CFE5E1F2E0038103950383DBCF00E031
:1003F000009318020091180210911B02011708F0D7
:1004000041C0E0EAF0E000911E0210E0E00FF11FB1
:10041000048500932202E5E1F2E00185039501875E
:100420000091220210E0F801E056FF4F0081009396
:100430002102E5E1F2E00091210210E0E00FF11F5E
:1004400004890F3F59F420912202E5E1F2E0009186
:10045000210210E0E00FF11F248B0EC0E5E1F2E075
:100460000091210210E0E00FF11F04891091220297
:10047000011711F003E04CC0E5E1F2E003810395C0
:100480000383B8CF00911C02002309F4F3CEE0EA05
:10049000F0E000911E0210E0E00FF11F04850C93C4
:1004A00000911C02023068F0E5E1F2E0018503955D
:1004B0000187E5E1F2E007810A95078304E00093F4
:1004C000160201E025C005E00093160200E020C0FE
:1004D00000911C020023A9F0E0EAF0E000911E0266
:1004E00010E0E00FF11F04850C93E5E1F2E00185D7
:1004F00003950187E5E1F2E007810A95078301E0B2
:1005000007C003E0009316028BCE00E001C007E0B5
:10051000A991B99108958A93219700911602053007
:1005200049F08E017ADE802F8130D9F3882311F0D3
:10053000082F34C000E00093210200912102043012
:1005400048F5E5E1F2E00091210210E0E00FF11F33
:1005500004890F3FC9F0E5E1F2E00091210210E0CB
:10056000E00FF11F2489E5E1F2E00091210210E0A3
:10057000E00FF11F208B2FEFE5E1F2E00091210267
:1005800010E0E00FF11F248BE5E1F2E00485039514
:100590000487D3CF00E00093160200E021968991F2
:1005A000089500913102002331F4009132020023BA
:1005B00011F401E0089500E008952AE030E00EE033
:1005C00010E00E94F1060895E3E3F2E0208131811A
:1005D00009E010E00E94E5060895E5E3F2E02081DD
:1005E000318103E110E00E94FD06089500913B0275
:1005F0000130E9F4E7E3F2E002811381012BB9F065
:10060000E7E3F2E00281138101501040028313837B
:10061000E7E3F2E002811381012B49F4E7E3F2E022
:1006200000810E94030B002311F00E94020E009132
:100630004102013001F5EDE3F2E002811381012B6B
:10064000D1F0EDE3F2E0028113810150104002830A
:100650001383EDE3F2E002811381012B61F4EDE3FA
:10066000F2E000810E94030B002311F00E94020EB1
:1006700000E000934102009147020130E9F4E3E415
:10068000F2E002811381012BB9F0E3E4F2E0028190
:1006900013810150104002831383E3E4F2E00281EE
:1006A0001381012B49F4E3E4F2E000810E94030B83
:1006B000002311F00E94020E0895EFE5F2E00081A0
:1006C0001181EBE6F2E00083118300E00093EF027A
:1006D0000E940110002349F008E00E94030B002350
:1006E00009F44CC00E94020E0895E1E6F2E0008198
:1006F0001181EFE5F2E0208131810217130790F4B8
:1007000001E000937802EFE5F2E000811181E1E67B
:10071000F2E020813181021B130BE5E6F2E0008359
:100720001183089501E00093EF0200E010E0EFE58F
:10073000F2E000831183EBE6F2E0008111810135E4
:1007400020E0120750F0EBE6F2E000811181005545
:100750001040EFE5F2E00083118300E0009378029F
:10076000E1E6F2E000811181EFE5F2E020813181E4
:10077000021B130BE5E6F2E00083118308950E944B
:100780001010002361F00E946B100E94140F08E00B
:100790000E94030B002309F10E94020E0895E1E676
:1007A000F2E000811181003020E4120770F00E9415
:1007B0006B1007E000937D020E948C0F01E00E9405
:1007C000030B002311F00E94020EE7E6F2E0008125
:1007D00011810F5F1F4F0083118308950AE00E946B
:1007E000030B002311F00E94020E08950E9494084A
:1007F0000E9452070091CF02002329F401E010E08B
:100800000E94500B04C009E110E00E945A0B00B393
:10081000089501E00E94030B002311F00E94020ED4
:1008200008950E946B1001E0009378020CEC009395
:1008300079020E944D10089500E00093770201E0D4
:100840000093740200917502002331F000E00093E0
:10085000750200E0009374020091EF02002359F04A
:1008600001E00093F90200E00093F8020093F70220
:1008700000E000937402089502E0009377020E9462
:100880000A0F089501E000937A0200E010E0E7E625
:10089000F2E0008311830FEF0093790203BD0E9401
:1008A0004D10089501E0009377020E940A0F009115
:1008B0003102002311F407D0089500913202002381
:1008C00009F4AFDF089500E0009378020CEC009388
:1008D00079020E944D1008950E946B1000E0009371
:1008E0004102089500917702023079F40E946B1062
:1008F00002E000937D020E948C0F01E00E94030B36
:100900000023C9F10E94020E089503E000937702CC
:100910000FEF0093790200EA1FE0E3E3F2E00083C7
:10092000118300917802002341F007E00E94030B3D
:10093000002351F00E94020E07C002E00E94030B48
:10094000002311F00E94020E07E20093D8020091EA
:10095000CB020093D90203B50093DA0206B30093E9
:10096000DB0200B30093DC0202E10E94030B0023D0
:1009700011F00E94020E0895A895009176020023BE
:1009800029F0E6E7F2E000810A9500830091740205
:10099000002349F100E000937402E1E7F2E00081F6
:1009A0000395008300917102002371F4E2E7F2E005
:1009B00000810395008300917202002329F4E3E78C
:1009C000F2E00081039500831091710208E00E941B
:1009D000090E1091720209E00E94090E1091730233
:1009E0000AE00E94090E00918002002331F504E123
:1009F00000938002EFE7F2E000810395008300910D
:100A00003102013021F000913202013011F4C09A1C
:100A1000089500917702002311F0C0980895009185
:100A20007F0210917E020117D0F016B301E001277A
:100A300008BB00E000937F020895E0E8F2E0008147
:100A40000A95008300918002002349F4009131024D
:100A5000013021F000913202013009F4C09808956C
:100A60000091D2020F3F31F00091D2021091CB02DF
:100A7000011781F400E00093D1020E94620B009103
:100A8000D102002339F402E10E94030B002311F08C
:100A90000E94020EEDECF2E000810D7F0083EDEC90
:100AA000F2E000810E7F008300E00093DE0200E0B0
:100AB0000093C702089500E00093C802EDECF2E055
:100AC000008101FF11C0EDECF2E000810D7F008399
:100AD000EDECF2E000810E7F008300E00093DE0287
:100AE00000E00093C70208950091CE02002379F040
:100AF0000091C6020093C7020093D20201E0009366
:100B0000DE02EDECF2E00081016000830895EDEC7F
:100B1000F2E0008100FF99C00091DE02053008F08C
:100B200082C00091C602E7ECF2E01081100F108342
:100B30002091C6020091DE0210E0F801EE52FD4F56
:100B40002083EEEDF2E00081039500830091C40262
:100B50001091C502011709F478C00091C40210E099
:100B6000000F111FF801EC57FD4F00810093C602E2
:100B7000E4E8F2E00091C40210E0000F111FE00F62
:100B8000F11F018101FF02C001E001C000E00093FC
:100B9000CE02E4ECF2E0008103950083E4ECF2E0A5
:100BA00000810F7100830091CE02002379F0009143
:100BB000C6020093C7020093D20201E00093DE0256
:100BC000EDECF2E000810160008308950091DE0207
:100BD0000530B0F40091C602E7ECF2E01081100F8E
:100BE00010832091C6020091DE0210E0F801EE525F
:100BF000FD4F2083EEEDF2E0008103950083A6CF48
:100C0000EDECF2E000810E7F00830091C7021091AD
:100C1000C6020117D1F400E10E94030B0023A9F0E2
:100C20000E94020E0895EDECF2E000810E7F008339
:100C30000091C7021091C602011739F400E10E9429
:100C4000030B002311F00E94020E08950091DF02B1
:100C500010E0F801E852FD4F00810093C9020091B5
:100C6000CF02002389F40091DF020530E8F40091FF
:100C7000C902E8EDF2E01581100F1583EFEDF2E007
:100C800000810395008310C00091DF02043060F4FE
:100C90000091C902E8EDF2E0148110271483EFED12
:100CA000F2E0008103950083EDECF2E000810F7D1E
:100CB00000830091C9020CB9089506B30F7E08BBEA
:100CC000579AEDECF2E00081077F00830091C802A3
:100CD000002339F00FE00E94030B002311F00E9463
:100CE000020E0895579806B3006108BBEDECF2E0E0
:100CF00000810860008300E00093DF020091CF02D2
:100D0000002329F400E00093DD02509A089500E0EA
:100D10000093DC020895EDECF2E0008105FF08C0CD
:100D200001E10E94030B002351F10E94020E08957D
:100D30000091CF02002381F40091DF02053020F002
:100D400001E10E94030B089508E10E94030B0023B8
:100D5000B1F00E94020E08950091DF02043040F0CD
:100D600001E10E94030B002351F00E94020E08953E
:100D700008E10E94030B002311F00E94020E089567
:100D8000F8940091CC020330C8F0EDECF2E0008161
:100D9000046000830091CF02002341F407E10E9428
:100DA000030B002381F00E94020E0DC004E10E949B
:100DB000030B002341F00E94020E05C0ECECF2E0B0
:100DC00000810395008378940895EDE3F2E00083B9
:100DD0001183EDE3F2E02283338340E0409341024C
:100DE0000895E7E3F2E000831183E7E3F2E0228372
:100DF000338341E040933B020895E3E4F2E0008353
:100E00001183E3E4F2E02283338341E0409347021D
:100E10000895FFCF8A932297F8940E942D090E948B
:100E20008A080E94DC000E94010B00E00E94030B74
:100E300078940E94A3108E010E94270B0E3FC9F3E5
:100E400008810E940101802F882311F00881E1DFD1
:100E50008E010F5F1F4F0E940D01802F813061F4C2
:100E6000098110E0000F111FF801EB51FE4F0081C6
:100E70001181F8010995ECCF882311F0082FC9DF03
:100E80000E948B02802F8823A1F2082FC2DFD1CFCE
:100E9000102FE199FECF00E00FBB1EBB01E00CBBA1
:100EA0000DB3089501E00E9448070093CB02009122
:100EB000CB02063240F40091CB020F3F21F00091AB
:100EC000CB02002319F403E60093CB0202E00E9458
:100ED00048070093CF020091CF02023020F4009126
:100EE000CF020F3F19F400E00093CF0200E000931F
:100EF000CF0206E00E94480700937B0207E00E94B1
:100F0000480700937C0230917B0220E000917C0234
:100F100010E0020F131FE9E6F2E00083118303E003
:100F20000E94480700937B0204E00E944807009358
:100F30007C0205E00E94480700937D0200917D023B
:100F40000023B9F4829915C0839913C010917B02D4
:100F500000E0E1E6F2E00083118300917C0210E002
:100F6000E1E6F2E020813181200F311F20833183BF
:100F700009C000E010E0E1E6F2E00083118306E042
:100F800000937D0208E00E9448070093710209E087
:100F90000E944807009372020AE00E9448070093EB
:100FA000730200917302007C002339F000E000938B
:100FB0007302009372020093710203E10E944807DA
:100FC0000093030304E10E9448070093040305E132
:100FD0000E94480700930503E4E0F3E0008107FF67
:100FE0000AC000E000930303009304030093050389
:100FF00001E000930F0306E10E94480700930603F7
:1010000007E10E9448070093070308E10E94480790
:1010100000930803E7E0F3E0008107FF07C000E06A
:1010200000930603009307030093080309E10E945D
:101030004807009309030AE10E94480700930A0346
:101040000BE10E94480700930B03EAE0F3E0008104
:1010500007FF07C000E00093090300930A03009311
:101060000B0301E10E94480700930E0302E10E9476
:10107000480700930D0300910D0300930C03EEE06D
:10108000F3E0008107FF0AC000E000930E03009325
:101090000D0310910E0301E10E94090E00910D0352
:1010A00000930C03EDE0F3E00081039500830091D1
:1010B0000C0310910D03011729F4EDE0F3E000811A
:1010C0000395008310910D0302E10E94090E009127
:1010D0000D03002351F4EEE0F3E00081039500835B
:1010E00010910E0301E10E94090E0CE10E944807D5
:1010F000009310030DE10E944807009311030EE1D5
:101100000E944807009312030FE10E9448070093D2
:101110001303089500E003BDC39AC098949895986E
:1011200008EC0093ED02089500E000936D0200E0EA
:101130000093ED0200EF10E0E3E3F2E0008311839F
:1011400003E010E0E5E3F2E00083118300E00093A8
:101150006E0200E000936F0200E00093C50200936E
:10116000C40200E00093CA0200E00093C80205E058
:1011700000937E0200E000937F0202E00093E00211
:1011800002E00093E10202E00093E2020AE0009331
:10119000E3020AE00093E40200E00093E5020AE0C3
:1011A0000093E60200E00093E70200E000933102C2
:1011B0000AE00093E80200E00093E90200E00093F7
:1011C000320200E00093EA020CE30093EB0200E03D
:1011D0000093EC0201E00093750201E000937802B5
:1011E00000E00093EE0200E00093EF0200E00093C5
:1011F0000F0308EC0093760200E010E0E7E3F3E071
:101200000383148300E010E0E7E3F3E00087118735
:1012100000E010E0E7E3F3E00587168700E010E068
:10122000E7E3F3E0028B138B00E010E0E7E3F3E089
:10123000078B108F00E010E0E7E3F3E0048F158FD9
:1012400000E010E0E7E3F3E001A312A300E010E008
:10125000E7E3F3E006A317A3089504B70093F002B1
:1012600004B70E7F04BF04B70D7F04BF04B70B7F24
:1012700004BF04B7077F04BF04B70F7E04BF04B7E1
:10128000006804BF00E00ABB09E507BB00E004BB3F
:1012900000EB01BB0FE001BD02E003BF08E00093DB
:1012A00070020091700202BF09B7016009BF05B763
:1012B0000A6005BF02E705BD00E003BD00E002BD16
:1012C0000895B19B1EC00091E002002389F0E0EE7A
:1012D000F2E000810A9500830091E002002341F4CE
:1012E00001E00093E20202E00093E10201E00895D0
:1012F0000091E002002319F402E00093E10200E013
:1013000008950091E102002389F0E1EEF2E000810E
:101310000A9500830091E102002341F400E000936C
:10132000E20202E00093E00201E008950091E10290
:10133000002319F402E00093E00200E0089506B3F0
:101340000093F20200B30093F102BBDF0023E1F14E
:10135000E4EFF2E000810395008300917602002320
:1013600099F584990EC0E1E6F2E000811181012B2C
:1013700041F0E1E6F2E0008111810150104000836C
:101380001183849B08C0E1E6F2E0008111810F5FC8
:101390001F4F008311830BE00E94030B002311F009
:1013A0000E94020E0091FC02002329F0ECEFF2E013
:1013B00000810A9500830091FE02002329F0E2E0FB
:1013C000F3E0008103950083B29B1AC00091E30211
:1013D000002319F40AE00093E4020091E3020023E1
:1013E00079F0E3EEF2E000810A9500830091E302D8
:1013F000002331F401E00093E5020AE00093E402E7
:10140000B2991AC00091E402002319F40AE0009393
:10141000E3020091E402002379F0E4EEF2E00081BF
:101420000A9500830091E402002331F400E0009368
:10143000E5020AE00093E302829B21C00091E602EC
:10144000002319F40AE00093E7020091E60200236A
:10145000B1F0E6EEF2E000810A9500830091E60229
:10146000002369F401E0009331020AE00093E702EF
:1014700003E00E94030B002311F00E94020E8299E8
:1014800033C00091E702002319F40AE00093E6025A
:101490000091E702002341F1E7EEF2E000810A95B6
:1014A00000830091E7020023F9F400E00093310289
:1014B0000AE00093E6020CE00E94030B002311F007
:1014C0000E94020E0091EE02002371F000E010E095
:1014D000E1E6F2E00083118300E000937D021091C9
:1014E0007D0205E00E94090E839B26C00091E80260
:1014F000002319F40AE00093E9020091E8020023B6
:10150000D9F0E8EEF2E000810A9500830091E8024C
:10151000002391F401E0009332020AE00093E90213
:1015200005E00E94030B002311F00E94020E04E06C
:1015300000937D020E948C0F83991AC00091E902EA
:10154000002319F40AE00093E8020091E902002365
:1015500079F0E9EEF2E000810A9500830091E9025A
:10156000002331F400E0009332020AE00093E80225
:10157000869B18C00091EA02002321F40CE300933B
:10158000EB020895EAEEF2E000810A9500830091F3
:10159000EA020023A9F500E00093EC020CE30093BB
:1015A000EB0208950091EB02002321F40CE3009379
:1015B000EA020895EBEEF2E000810A9500830091C3
:1015C000EB020023E9F401E00093EC020CE300934A
:1015D000EA0200917702002361F400916D0200237A
:1015E00079F40DE00E94030B002351F00E94020EDB
:1015F00008950AE00E94030B002311F00E94020EDE
:10160000089548D00895682F802F20915D0230E022
:1016100000915E0210E00F5F1F4F2017310711F499
:101620000DEF13C000915E0210E0F801E75BFD4F83
:10163000808300915E0210E00F5F1F4F44E150E095
:101640000E94EC1140935E0200E0862F0895392F2E
:10165000282FC80100915D0210915E02011711F45C
:101660000EEF15C000915D0210E0F801E75BFD4F41
:101670000081FC01008300915D0210E00F5F1F4FAD
:1016800044E150E00E94EC1140935D0200E0822FA3
:10169000932F089500E000935E0200935D02089589
:1016A0009801232F20BD202F29B92CED2AB92EE82F
:1016B00020BD08959801232F20BD202F29B928EDA2
:1016C0002AB908950091D3020093D8020091CB0269
:1016D0000093D9020091D4020093DA020091D5025E
:1016E0000093DB020091D6020093DC020091D40249
:1016F000E4E5F0E00C94091204E00093DC020895A4
:101700000091D502005049F00A9559F00A9569F008
:101710000A9579F0095089F008950091D6020BBB23
:1017200008950091D60208BB08950091D60205BB2A
:1017300008950091D60202BB08950091D60204BF1D
:1017400008950091D502005049F00A9569F00A9574
:1017500089F00A95A9F00950C9F0089509B31091CC
:10176000D602102B1BBB089506B31091D602102B86
:1017700018BB089503B31091D602102B15BB089522
:1017800000B31091D602102B12BB08950091D6021F
:1017900014B7102B14BF08950091D502005049F0E2
:1017A0000A9569F00A9589F00A95A9F00950C9F0DF
:1017B000089509B31091D60210231BBB089506B3F8
:1017C0001091D602102318BB089503B31091D602CE
:1017D000102315BB089500B31091D602102312BB3D
:1017E00008950091D60214B7102314BF08950091F4
:1017F000D5020058F9F0005849F00A9559F00A95B9
:1018000069F00A9579F0095089F0089509B30093B9
:10181000DC02089506B30093DC02089503B300933D
:10182000DC02089500B30093DC02089504B700932E
:10183000D6020895F8940091D6020E9448070093BA
:10184000DB027894089501B50093DB020091F00269
:101850000093DC0208950091D502005041F00A95F2
:1018600079F00A9571F10A9509F44FC00895009135
:101870007D020093DB020091F0020093DC020895E8
:101880000091D602015029F00A9559F00A9589F085
:10189000089500E00093DB02009103030093DC0253
:1018A000089500E00093DB02009106030093DC0240
:1018B000089500E00093DB02009109030093DC022D
:1018C00008950091D602015029F00A9561F00A9519
:1018D00099F00895009104030093DB020091050341
:1018E0000093DC020895009107030093DB0200914E
:1018F00008030093DC02089500910A030093DB02C1
:1019000000910B030093DC02089500910E030093F5
:10191000DB0200910D030093DC02089500917D022B
:101920000093DB02009177020093DC020091EE024B
:10193000002311F000E801C000E0E8EDF2E01481BE
:10194000102B1483829B02C000E401C000E0E8ED8C
:10195000F2E01481102B1483839B02C000E201C0CB
:1019600000E0E8EDF2E01481102B1483089503E009
:101970000093DB0200E00093DC0208950091DB029B
:10198000009301030091DC020093FD0201E000934B
:10199000FE02089500E00093FE020895E9E6F2E0F9
:1019A0001181012F0093DB02E9E6F2E00081009350
:1019B000DC0208953091D50220E00091D60210E0BB
:1019C000020F131FE9E6F2E0008311830091D502B4
:1019D00000937B020091D60200937C0210917B025F
:1019E00006E00E94090E10917C0207E00E94090E99
:1019F000089500E00093FE020E946B10089500E03D
:101A00000093FE0204E00093770204E00E94030BBF
:101A1000002309F4F6C00E94020E089500913202DC
:101A2000002309F0EEC00091DB02013011F401E067
:101A300001C000E0009378020091DC02002321F451
:101A400000EC0093790204C00091DC02009379025B
:101A50000E944D1008950091EE02002361F0E1E62E
:101A6000F2E01181012F0093DB02E1E6F2E0008158
:101A70000093DC020895E1E6F2E01181012F00936A
:101A8000DB02E1E6F2E000810093DC020091EF026C
:101A9000002309F4B6C0EBE6F2E01181012F0093B8
:101AA000DB02EBE6F2E000810093DC02089500E047
:101AB0000093FE020091D5020F3408F0A2C00091FD
:101AC0007D02002309F09DC00091EE02002309F081
:101AD00098C00091D502002329F40091D602043069
:101AE00008F48FC03091D50220E00091D60210E0BA
:101AF000020F131FE3E6F2E000831183E3E6F2E056
:101B000000811181E9E6F2E020813181021713079B
:101B100040F4E3E6F2E000811181EFE5F2E00083BA
:101B200011830E940110002309F06BC006E00E949F
:101B3000030B002309F465C00E94020E08950FEF05
:101B400000936D020091EC02013091F40091D602F5
:101B50000F730093CB021091CB0201E00E94090E9B
:101B60000091CB020093D90205E000937D02089515
:101B700001E00093D102089500E000937D020E94ED
:101B80002F0F08950091D602009379020895F894DA
:101B90001091D6020091D5020E94090E7894089502
:101BA0000CE10E9448070093DB020DE10E94480708
:101BB0000093DC0208951091D5020CE10E94090EF9
:101BC0001091D6020DE10E94090E08950EE10E94C7
:101BD00048070093DB020FE10E9448070093DC02F4
:101BE00008951091D5020EE10E94090E1091D602BF
:101BF0000FE10E94090E089500E00093DC020093BB
:101C0000DB02089501E000937E0200E000937F0272
:101C100008952091150330E0F901E95EFC4F00833F
:101C20002091150330E0F901E95DFC4F1083E5E1F7
:101C3000F3E0208123952083E5E1F3E020812F70FC
:101C4000208308950091FB02E0EBF0E00C94091270
:101C50000091FE02013009F092C0EBEFF2E000814A
:101C60000395008308950091FD020093FC0294986F
:101C70000FEF03BD959A01E00093EE02EBEFF2E067
:101C800000810395008308950091FC02002309F070
:101C900076C000E003BD959808EC0093ED0200E0EB
:101CA0000093EE02EBEFF2E00081039500830895CC
:101CB0000CE30093FF02EBEFF2E000810395008359
:101CC0000895EFEFF2E000810A9500830091FF0292
:101CD000002309F054C0EBEFF2E00081039500838C
:101CE0000895949A0FEF03BD959A01E00093EE02D8
:101CF000EBEFF2E0008103950083089500E000938C
:101D00000203EBEFF2E0008103950083089579D19F
:101D1000002359F40091FD0210E0005F1F4F209155
:101D2000020330E00217130754F5959808EC00936E
:101D3000ED0200E003BD00E00093EE02EBEFF2E005
:101D4000008103950083089500910103009300032F
:101D5000EBEFF2E00081039500830895009100030A
:101D6000002369F4EBEFF2E000810395008308950E
:101D700000E00093FB02089500E00093FB02089549
:101D80000091150310911603011709F442C0009148
:101D90001403005039F00A9559F00A9519F10A9583
:101DA00039F134C0E19935C001E00093140308957E
:101DB00000E00FBB0091160310E0F801E95EFC4F54
:101DC00000810EBB0091160310E0F801E95DFC4FA5
:101DD00000810DBB04E00CBB02E00CBB02E00093F1
:101DE00014030895E19915C003E0009314030895C6
:101DF000E6E1F3E0008103950083E6E1F3E0008192
:101E00000F70008300E000931403089500E0009336
:101E10001403089512E303E0FCDE12E304E0F9DEAC
:101E200011E005E0F6DE0895E1E6F2E01181012F10
:101E300000937B02E1E6F2E0008100937C0200E087
:101E400000937D0210917B0203E0E3DE10917C029F
:101E500004E0DFDE10917D0205E0DBDE089500E0A6
:101E600000930F0300E0009306030093090300E0D2
:101E70000093070300930A0300E000930803009314
:101E80000B0300E0009303030093060300E00093BC
:101E900004030093070300E0009305030093080385
:101EA00000E000937D020093030300E000930E0323
:101EB0000093040300E000930D03009305031091C9
:101EC000030303E1A6DE1091040304E1A2DE1091F6
:101ED000050305E19EDE1091060306E19ADE1091EE
:101EE000070307E196DE1091080308E192DE1091E6
:101EF000090309E18EDE10910A030AE18ADE1091DE
:101F00000B030BE186DE10910E0301E182DE1091DE
:101F10000D0302E17EDE089500E000930F030091BF
:101F20000603009309030091070300930A0300913D
:101F3000080300930B030091030300930603009131
:101F40000403009307030091050300930803009125
:101F50007D020093030300910E030093040300919C
:101F60000D03009305031091030303E152DE10916A
:101F7000040304E14EDE1091050305E14ADE1091F1
:101F8000060306E146DE1091070307E142DE1091E9
:101F9000080308E13EDE1091090309E13ADE1091E1
:101FA0000A030AE136DE10910B030BE132DE0895DD
:101FB000E1E6F2E000811181EFE5F2E0208131817C
:101FC0000217130778F4EFE5F2E000811181E1E6F2
:101FD000F2E020813181021B130BE5E6F2E0008381
:101FE00011830895E1E6F2E000811181EFE5F2E06E
:101FF00020813181021B130BE5E6F2E0008311839F
:102000000895BA93AA93D4DFA5E6B2E0ED91FC91CE
:10201000339710F401E001C000E0A991B99108954F
:102020005B2F4A2FE1E6F2E000811181EFE5F2E05B
:102030002081318102171307B0F4EFE5F2E000814F
:102040001181E1E6F2E020813181021B130BE5E60C
:10205000F2E000831183A5E6B2E0ED91FC913497A4
:10206000C0F401E017C0E1E6F2E000811181EFE584
:10207000F2E020813181021B130BE5E6F2E00083E0
:102080001183A5E6B2E0ED91FC91339710F401E0E5
:1020900001C000E0A42FB52F08950091780201300F
:1020A00011F401E001C000E0102F10FD949A10FF20
:1020B00094980FEF03BD959A01E00093EE0201E0C2
:1020C0000093F30200E00093F40200E00093F502B5
:1020D0000093F6020895959808EC0093ED0200E055
:1020E00003BD00E00093EE0200E00093F3020895C8
:1020F000E5EFF2E00081039500830091F502083CD2
:1021000009F500E00093F502E6EFF2E000810395A7
:1021100000830091F6020330A8F00091F40205302C
:1021200058F4D9DF03E000937D02F6DE09E00E9457
:10213000030B002309F066DD00E00093F60200E0E7
:102140000093F402089500916E0210916F0201173E
:1021500009F473C000916E0200936F020E94F602B0
:102160000E949F090091F302002309F0C1DF009152
:10217000ED02002351F0EDEEF2E000810A950083BC
:102180000091ED02002309F4959AEAEFF2E0008154
:102190000A9500830091FA020023D1F404E1009330
:1021A000FA0200910003002329F0E0E0F3E000814F
:1021B0000A95008300910F03002309F0ADDE009122
:1021C0006D02002329F0EDE6F2E000810A9500831C
:1021D000D7DD38DD0091F902002379F1E7EFF2E075
:1021E0000081039500830091F702083C30F100E084
:1021F0000093F702E8EFF2E000810395008300917D
:10220000F8020230D0F0EBE6F2E000811181EFE558
:10221000F2E00083118300E00093F80200E00093F5
:10222000EF0200E00093F902ECDE002331F406E057
:102230000E94030B002309F0E5DC0091CA02002391
:1022400009F466C00BB100938102E1E8F2E000817D
:1022500007FF17C00AB1009382020CB100938302FA
:102260005098009183020093D0020091C90210910E
:10227000D002011761F0EDECF2E000810062008312
:1022800006C0EDECF2E0008100620083509800E0AF
:102290000093CA020091CF02002399F50091DF025A
:1022A000063028F4EDECF2E0008105FF0DC0EDEC06
:1022B000F2E000810F7D008301E10E94030B002307
:1022C00009F45FC09FDC08950091DF0210E0F8017F
:1022D000E852FD4F00810093C9020091DF020530F2
:1022E00039F00091C902E8EDF2E01581100F158375
:1022F000EFEDF2E00081039500830091C9020CB973
:10230000089505E10E94030B0023D9F17BDC0895B9
:102310000091C4021091C502011799F10091C80201
:10232000002379F501E00093C8020091C40210E097
:10233000000F111FF801EC57FD4F00810093C602FA
:10234000E4E8F2E00091C40210E0000F111FE00F7A
:10235000F11F018101FF02C001E001C000E0009314
:10236000CE020FE00E94030B002309F04BDCE4ECEB
:10237000F2E0008103950083E4ECF2E000810F714C
:10238000008308950FE90DBF00E00EBFC0E8D0E064
:102390000E944E12002311F00E945E120E940A0752
:1023A0000E9478120C94781200241124EFE0001F90
:1023B000111F001C111C0416150610F0041A150A32
:1023C000EA95AAF7001F111FA00100951095089526
:1023D0005195419550400895FF27552312F4F1601F
:1023E000F7DF112312F4F09507D00E94D411F0FD0D
:1023F00003D0F1FDEDCF089511950195104008959A
:102400007591659155914591159011FA25903590EA
:102410000895F9DF041B10E003C0F4DF041B150B63
:1024200020E030E005C0ECDF041B150B260B370B5A
:10243000B8F010FC17C045910590E00FF11F04178C
:10244000100540E02407340758F436F404910024C2
:10245000F101E01BF0090994E00FF11F2590359080
:10246000F101099411F4D6F7F1CF31960EF03196BF
:1024700050E060E070E045914B3F48F089F34F3FFA
:1024800029F04E3F11F07591659155914591041BCE
:10249000150B260B370B39F318F3E7CF01E008953E
:1024A00020E002D0E9F708952D9301501040202F2D
:1024B000212B08952591F8DFE9F7089586EF94E23E
:1024C000FC0105911491FC013296A591B491FC0197
:1024D000349625913491422F432B19F0F901EADF0C
:1024E00001C0DEDF069615E28230910748F30895B9
:1024F00000008895FECF4A01150200007501A0007A
:102500000225000000000001010202020303004056
:10251000050005070A03150B06110000011501103F
:102520000100010901110300000200070801100267
:1025300000040A1601100200030516011002010032
:102540000B0601100202000B0601100202000B062E
:1025500001100203000B0601100204000B0601200B
:1025600002050607171402000106071201100106F2
:1025700005110000010D0000010C01100101010511
:1025800001100201010B0201100201010B020110F6
:102590000202020B040110010202010110020202F8
:1025A0000B0401100202020B0401100203030B02D0
:1025B00001100203030B02011001040405011002C3
:1025C00004040B0201100204040B020110010505B2
:1025D0000F01100105050E0220030706070612175A
:1025E00014023002060708060A121002200206072B
:1025F000090612100330010A08060B0806130330FF
:10260000010B08060A080610003B266C80A9108DF5
:102610009B161F347294A2AF2D42498779B6680C7D
:1026200064BDC3585E50C9D3E6DDF0000102030665
:1026300007090A0B0C1013141617191A1B1D1E1F5D
:102640002021212223D1025D03BF03EE03F60309FB
:102650000411041C043C044204520463046C04721C
:1026600004BC0430055B0526065D0672068B06C0B9
:0726700006DD02E402ED02A9
:00000001FF
