:100000000C948E0C0C949C000C949D000C949E00FF
:100010000C949F000C94A0000C94A1000C94A200DE
:100020000C94A3000C94A4000C94B7000C94B8009A
:100030000C94FD000C94FE000C9404010C9405013A
:100040000C9406010C9407010C9408010C9409010E
:100050000C940A019F08A108C208ED08BC0A1809FF
:10006000BC0ABC0ABC0ABC0ABC0ABC0A3C0942095C
:100070009009B309BC0ABC0ABC0ABC0AC10ABC0A82
:10008000BC0ABC0ABC0ABC0ABC0ABC0ABC0ABC0A40
:10009000BC0ABC0ABC0ABC0ABC0ABC0ABC0ABC0A30
:1000A000BC0ABC0ABC0ABC0ABC0ABC0ABC0ABC0A20
:1000B000BC0ABC0ABC0ABC0ABC0ABC0ABC0ABC0A10
:1000C000BC0ABC0ABC0ABC0ABC0ABC0ABC0ABC0A00
:1000D000BC0ABC0ABC0ABC0ABC0ABC0AB809C209F0
:1000E000BC0ABC0ABC0ABC0ABC0ABC0ABC0ABC0AE0
:1000F000BC0ABC0ABC0ABC0ABC0ABC0ABC0ABC0AD0
:10010000BC0ABC0AC609C909E209E809EF090A0ADA
:10011000250A670AC10AC10A840A8A0A8F0ABC0A28
:10012000BC0ABC0ABC0ABC0ABC0ABC0ABC0ABC0A9F
:10013000980AA10AAC0AB30A18951895189518954B
:100140001895189518951895FA93EA931A930A93A7
:100150001FB70091700202BFEEE6F2E00081039546
:1001600000831FBF09911991E991F991189518958C
:10017000FA93EA931A920A923A932A931A930A9359
:100180003FB70BB1009381020AB1009382020CB118
:100190000093830200E00093CC02EDECF2E00081DA
:1001A0000B7F008300918102087121F000810260C1
:1001B000008319C0009182021091C50222E0129FB3
:1001C000F001EC57FD4F0183009183021091C502AD
:1001D000129FF001EC57FD4F00830091C50203957B
:1001E0000F710093C5023FBF09911991299139916F
:1001F00009901990E991F991189518950A9301E0E1
:100200000093CA0209911895189518951895189594
:1002100018951895189501D0089500E000932102D3
:1002200013C00FEF2091210230E0F901EB5EFD4F8A
:10023000048B20912102F901EB5EFD4F008BE5E17B
:10024000F2E004850395048700912102043048F30D
:1002500000E0009316020895093110F004E00895BB
:1002600000931D0202E00093160200E00895BA9385
:10027000AA93D80103C003E000931602009116026E
:10028000025049F00A95E9F00A9509F42AC10A9545
:1002900009F425C13CC100911D0210E0F801E753AB
:1002A000FE4F008100931F0200911D020F5F1F4F40
:1002B000F801E753FE4F00810093200203E0009312
:1002C000160200911F0210912002011708F004C1CC
:1002D00000911F0210E0F801EA55FE4F00810093E3
:1002E0001E02E5E1F2E002850395028700911E02FD
:1002F000F801E056FF4F048500932102E5E1F2E0AA
:10030000018503950187009121020F7000931A0265
:1003100000911E02F801E056FF4F04850093210270
:10032000E5E1F2E0018503950187009121020F705C
:10033000009323020091210202950F7000931B028B
:1003400000911E02F801E056FF4F04850093210240
:10035000E5E1F2E0018503950187009121020F702C
:1003600000931C020091210202950F700093240259
:100370001093180222C000911E0210E0F801E0560E
:10038000FF4F048500932202E5E1F2E00185039529
:1003900001872091220200912202F801E056FF4FCE
:1003A0000081F801EB5EFD4F0089201709F089CF2D
:1003B000E5E1F2E0038103950383009118021091B7
:1003C0001A020117C0F200912302002331F100E06C
:1003D000009318021CC000911E02102F1395109359
:1003E0001E0210E0F801E056FF4F048512E0019F65
:1003F000F001ED51FE4F00811181F80109950023B4
:1004000009F45FCFE5E1F2E00381039503830091F6
:100410001802109123020117F0F200E00093180275
:100420000DC02091220200912102F801EB5EFD4FE8
:10043000248BE5E1F2E00381039503830091180228
:1004400010911B02011750F500911E0210E0F801F7
:10045000E056FF4F048500932202E5E1F2E00185BA
:100460000395018700912202F801E056FF4F0081B9
:100470000093210200912102F801EB5EFD4F0489F7
:100480000F3F79F200912102F801EB5EFD4F0489E4
:1004900010912202011769F203E03AC000911C0298
:1004A000002309F40ECF00911E0210E0F801E0567F
:1004B000FF4F04850C9300911C02023058F0E5E1D7
:1004C000F2E001850395018707810A95078304E01F
:1004D0000093160201E01CC005E00093160200E044
:1004E00017C000911C02002309F4C5CE00911E0222
:1004F00010E0F801E056FF4F04850C93E5E1F2E0CF
:1005000001850395018707810A950783E3CF07E0FB
:10051000A991B9910895219700911602053031F003
:100520008E01A5DE0130E1F3002369F500E00093C0
:10053000210222C00091210210E0F801EB5EFD4F84
:1005400004890F3FA1F000912102F801EB5EFD4FFD
:10055000248900912102F801EB5EFD4F208B0FEF03
:100560002091210230E0F901EB5EFD4F048BE5E1C3
:10057000F2E0048503950487009121020430D0F253
:1005800000E00093160221960895009131020023A5
:1005900031F400913202002311F401E0089500E0EB
:1005A00008952AE030E00EE010E00E941C06089555
:1005B000E3E3F2E02081318109E010E00E941206BD
:1005C0000895E5E3F2E02081318103E110E00E942B
:1005D00026060895EFE5F2E000811181EBE6F2E0F6
:1005E0000083118300E00093EE020E94B10B002310
:1005F00049F008E00E942D08002309F443C00E943E
:10060000C20A0895E1E6F2E000811181EFE5F2E02F
:10061000208131810217130701E078F400937802FA
:1006200000811181E1E6F2E020813181021B130B90
:10063000E5E6F2E00083118308950093EE0200E006
:1006400000830183EBE6F2E000811181013520E0B7
:10065000120740F00081118100551040EFE5F2E0F3
:100660000083118320937802E1E6F2E0008111819A
:10067000EFE5F2E020813181021B130BE5E6F2E0A9
:100680000083118308950E94C00B002361F00E9433
:10069000150C0E94E70A08E00E942D08002309F1CA
:1006A0000E94C20A0895E1E6F2E000811181003063
:1006B00020E4120770F00E94150C07E000937D0201
:1006C0000E94460B01E00E942D08002311F00E94B9
:1006D000C20AE7E6F2E0008111810F5F1F4F00833D
:1006E000118308950AE00E942D08002311F00E9452
:1006F000C20A08950E9494070E9472060091CF02D8
:10070000002329F401E010E00E94710804C009E10F
:1007100010E00E94780800B3089501E00E942D08BF
:10072000002311F00E94C20A08950E94150C01E0F6
:10073000009378020CEC009379020E94F90B089563
:1007400000E00093770201E00093740200917502CB
:10075000002329F000E000937502009374020091D9
:10076000EE02002351F001E00093F60200E0009356
:10077000F5020093F40200937402089502E00093DE
:1007800077020E94DD0A089501E000937A0200E0FA
:10079000E7E6F2E0008301830FEF0093790203BDE7
:1007A0000E94F90B089501E0009377020E94DD0A90
:1007B00000913102002311F407D008950091320214
:1007C000002309F4B2DF089500E0009378020CECF6
:1007D000009379020E94F90B08950E94150C00E025
:1007E00000934102089500917702023079F40E944B
:1007F000150C02E000937D020E94460B01E00E946E
:100800002D08002399F10E94C20A089503E0009385
:1008100077020FEF0093790200EA1FE0E3E3F2E0D2
:100820000083118300917802002311F007E001C0DA
:1008300002E00E942D08002311F00E94C20A07E284
:100840000093D7020091CB020093D80203B5009326
:10085000D90206B30093DA0200B30093DB0202E18F
:100860000E942D08002311F00E94C20A0895A89545
:1008700000917602002329F0E6E7F2E000810A9574
:10088000008300917402002349F100E00093740298
:10089000E1E7F2E0008103950083009171020023FB
:1008A00071F4E2E7F2E000810395008300917202A7
:1008B000002329F4E3E7F2E000810395008310911F
:1008C000710208E00E94C90A1091720209E00E94B8
:1008D000C90A109173020AE00E94C90A00918002BD
:1008E000002331F504E100938002EFE7F2E000819C
:1008F0000395008300913102013021F00091320212
:10090000013011F4C09A089500917702002311F08C
:10091000C098089500917F0210917E020117D0F0D7
:1009200016B301E0012708BB00E000937F020895A1
:10093000E0E8F2E000810A95008300918002002344
:1009400049F400913102013021F00091320201306E
:1009500009F4C09808950091D1020F3F31F0009141
:10096000D1021091CB02011781F400E00093D00274
:100970000E947D080091D002002339F402E10E9418
:100980002D08002311F00E94C20AEDECF2E0008174
:100990000C7F008300E00093DD020093C7020895FE
:1009A00000E00093C802EDECF2E0008101FF09C015
:1009B00000810C7F008300E00093DD020093C702FA
:1009C00008950091CE02002361F00091C6020093C9
:1009D000C7020091C7020093D10201E00093DD023B
:1009E00053C0008100FF7CC00091DD02053008F09B
:1009F00067C00091C602E7ECF2E01081100F10838F
:100A00002091C6020091DD0210E0F801EF52FD4F87
:100A10002083EDEDF2E00081039500830091C40294
:100A20001091C502011709F45BC00091C40212E0E5
:100A3000019FF001EC57FD4F00810093C602009129
:100A4000C402019FF001EC57FD4F018101FF02C07C
:100A500001E001C000E00093CE020091C4020395C2
:100A60000F710093C4020091CE02002389F000911F
:100A7000C6020093C7020091C7020093D10201E0B1
:100A80000093DD02EDECF2E0008101600083089547
:100A90000091DD02053008F4ACCFEDECF2E000810E
:100AA0000E7F00830091C7021091C6020117C1F4A6
:100AB00000E10E942D08002399F00E94C20A0895C7
:100AC00000810E7F00830091C7021091C6020117BA
:100AD00039F400E10E942D08002311F00E94C20A9F
:100AE00008950091DE0210E0F801E952FD4F008107
:100AF0000093C9020091CF0200230091DE0251F45D
:100B00000530B0F40091C902E7EDF2E01581100F55
:100B1000158309C0043060F40091C902E7EDF2E0EA
:100B2000148110271483EEEDF2E000810395008319
:100B3000EDECF2E000810F7D00830091C9020CB959
:100B4000089506B30F7E08BB579AEDECF2E00081E2
:100B5000077F00830091C802002339F00FE00E9454
:100B60002D08002311F00E94C20A0895579806B379
:100B7000006108BBEDECF2E000810860008300E05A
:100B80000093DE020091CF02002300E021F40093E5
:100B9000DC02509A08950093DB020895EDECF2E038
:100BA000008105FD10C00091CF0200230091DE02FC
:100BB00041F4053020F001E10E942D08089508E17C
:100BC00003C0043040F001E10E942D08002351F0E1
:100BD0000E94C20A089508E10E942D08002311F026
:100BE0000E94C20A0895F8940091CC02033098F054
:100BF000EDECF2E00081046000830091CF0200235D
:100C000041F407E10E942D08002351F00E94C20A1E
:100C100007C004E1F7CFECECF2E00081039500831C
:100C200078940895EDE3F2E0008311832283338307
:100C300000E0009341020895E7E3F2E000831183AE
:100C40002283338301E000933B020895E3E4F2E062
:100C5000008311832283338301E0009347020895C8
:100C6000FFCFBA93AA932297F8940E94F7070E94A5
:100C70008A070E940B010E942B0800E00E942D08A9
:100C8000789418C0098112E0019FD001AB51BE4F8A
:100C9000ED91FC9109958E010F5F1F4F0E94370166
:100CA000013081F3002309F0DBDF0E948B02002377
:100CB00009F0D6DF0E94200C8E010E944D080E3FE5
:100CC000C9F308810E942C01002329F30881C8DFA1
:100CD000E2CFE199FECF10E01FBB0EBB01E00CBBE1
:100CE0000DB3089501E00E9469060093CB020091C4
:100CF000CB02063240F40091CB020F3F21F000916D
:100D0000CB02002319F403E60093CB0202E00E9419
:100D1000690600E00093CF0206E00E946906009396
:100D20007B0207E00E94690600937C0230917B02FF
:100D300000917C02E9E6F2E00083318303E00E9447
:100D4000690600937B0204E00E94690600937C021E
:100D500005E00E94690600937D0200917D02002358
:100D600069F482990BC0839909C030917B0200918C
:100D70007C02E1E6F2E00083318308C000E0E1E6B6
:100D8000F2E00083018306E000937D0208E00E9408
:100D900069060093710209E00E94690600937202DD
:100DA0000AE00E9469060093730200917302007CBE
:100DB00039F000E000937302009372020093710215
:100DC00003E10E9469060093FA0204E10E946906A9
:100DD0000093FB0205E10E9469060093FC02EBEF21
:100DE000F2E0008107FF0AC000E00093FA020093DE
:100DF000FB020093FC0201E00093060306E10E945F
:100E000069060093FD0207E10E9469060093FE0255
:100E100008E10E9469060093FF02EEEFF2E0008114
:100E200007FF07C000E00093FD020093FE0200935D
:100E3000FF0209E10E946906009300030AE10E9493
:100E40006906009301030BE10E9469060093020307
:100E5000E1E0F3E0008107FF07C000E0009300033A
:100E6000009301030093020301E10E9469060093CD
:100E7000050302E10E946906009304030091040344
:100E800000930303E5E0F3E0008107FF09C000E001
:100E9000009305030093040310E001E10E94C90AD6
:100EA0000091040300930303E4E0F3E00081039561
:100EB00000830091030310910403011719F40081CA
:100EC000039500831091040302E10E94C90A009176
:100ED0000403002351F4E5E0F3E00081039500836F
:100EE0001091050301E10E94C90A0CE10E94690604
:100EF000009307030DE10E946906009308030EE1C9
:100F00000E946906009309030FE10E94690600939D
:100F10000A03089500E003BDC39AC0989498959879
:100F200008EC0093EC02089500E000936D0200933A
:100F3000EC0200EF10E0E3E3F2E00083118303E052
:100F4000E5E3F2E00083118310936E0210936F02C9
:100F50001093C5021093C4021093CA021093C802E2
:100F600005E000937E0210937F0202E00093DF020F
:100F70000093E0020093E1020AE00093E202009392
:100F8000E3021093E4020093E5021093E60210934B
:100F900031020093E7021093E8021093320210939B
:100FA000E9020CE30093EA021093EB0201E00093E4
:100FB0007502009378021093ED021093EE021093E5
:100FC000060308EC00937602ECE2F3E0138314834B
:100FD0001087118715871687128B138B178B108F2D
:100FE000148F158F11A312A316A317A3089504B786
:100FF0000093EF0204B70E7F04BF04B70D7F04BF58
:1010000004B70B7F04BF04B7077F04BF04B70F7E8C
:1010100004BF04B7006804BF00E00ABB09E507BBD2
:1010200000E004BB00EB01BB01B5086101BD00E0BD
:1010300001BD02E003BF08E00093700202BF09B7E0
:10104000016009BF05B70A6005BF02E705BD00E002
:1010500003BD02BD08953FD0089540915D0250E068
:1010600020915E0230E02F5F3F4F4217530711F48B
:101070000DEF089520915E0230E0F901E75BFD4F2E
:10108000008300915E0210E00F5F1F4F44E10E9459
:10109000B80C40935E0200E0089520915D0230910B
:1010A0005E02231711F40EEF089520915D0230E0E7
:1010B000F901E75BFD4F2081F801208300915D027B
:1010C00010E00F5F1F4F44E150E00E94B80C4093C6
:1010D0005D0200E0089500E000935E0200935D026F
:1010E000089510BD09B90CED0AB90EE800BD0895C8
:1010F00010BD09B908ED0AB908950091D202009314
:10110000D7020091CB020093D8020091D302009342
:10111000D9020091D4020093DA020091D502009323
:10112000DB020091D302023708F026C2F2E00F9FE3
:10113000F001EC5AFF4F05901490F001099404E07F
:1011400081C10091D402005049F00A9559F00A95E6
:1011500069F00A9579F0095089F008950091D50257
:101160000BBB08950091D50208BB08950091D502EC
:1011700005BB08950091D50202BB08950091D502E8
:1011800004BF08950091D402005049F00A9569F017
:101190000A9589F00A95A9F00950C9F0089509B394
:1011A0001091D502102B1BBB089506B31091D502E8
:1011B000102B18BB089503B31091D502102B15BB4B
:1011C000089500B31091D502102B12BB0895009121
:1011D000D50214B7102B14BF08950091D40200500B
:1011E00049F00A9569F00A9589F00A95A9F0095025
:1011F000C9F0089509B31091D50210231BBB0895BF
:1012000006B31091D502102318BB089503B31091B3
:10121000D502102315BB089500B31091D5021023F9
:1012200012BB08950091D50214B7102314BF08957E
:101230000091D4020058B9F0005849F00A9549F0DD
:101240000A9549F00A9549F0095049F0089509B303
:10125000F9C006B3F7C003B3F5C000B3F3C004B7D9
:101260000093D5020895F8940091D5020E94690672
:101270000093DA027894089501B50093DA020091A0
:10128000EF02E0C00091D402005039F00A9541F01D
:101290000A9509F10A95E9F1089500917D02EDCFD3
:1012A0000091D502015029F00A9549F00A9569F09C
:1012B000089500E00093DA020091FA02C3C000E052
:1012C0000093DA020091FD02BDC000E00093DA0253
:1012D00000910003B7C00091D502015029F00A9592
:1012E00051F00A9579F008950091FB020093DA021B
:1012F0000091FC02A7C00091FE020093DA02009167
:10130000FF02A0C0009101030093DA0200910203E2
:1013100099C0009105030093DA020091040392C082
:1013200000917D020093DA020091ED02002311F09A
:1013300000E801C000E020917702022B0093DB025D
:10134000829B02C000E401C000E0E7EDF2E01481FE
:10135000102B1483839B02C000E201C000E01481C3
:10136000102B1483089503E00093DA0201E06AC0B1
:101370000091DA020093F9020091DB020093F70278
:1013800001E001C000E00093F8020895E9E6F2E010
:1013900055C03091D4020091D502E9E6F2E0008315
:1013A00031830091D40200937B020091D502009317
:1013B0007C0210917B0206E00E94C90A10917C0217
:1013C00007E0C7C000E00093F8020E94150C0895E2
:1013D00000E00093F80204E00093770270C00091EF
:1013E0003202002309F0CDC00091DA02013011F47D
:1013F00001E001C000E0009378020091DB020023CD
:1014000011F400EC02C00091DB02009379020E940B
:10141000F90B08950091ED020023E1E6F2E011815D
:101420001093DA0200810093DB0209F00895009125
:10143000EE02002309F4A5C0EBE6F2E0118110935F
:10144000DA0200810093DB02089500E00093F802C5
:101450000091D4020F3408F094C000917D02002363
:1014600009F08FC00091ED02002309F08AC00091BD
:10147000D402002329F40091D502043008F481C07D
:101480003091D4020091D502E3E6F2E0008331838B
:1014900000811181E9E6F2E0208131810217130712
:1014A00040F4E3E6F2E000811181EFE5F2E0008331
:1014B00011830E94B10B002309F063C006E00E9473
:1014C0002D08002309F45DC00E94C20A08950FEFA1
:1014D00000936D020091EB02013091F40091D5026E
:1014E0000F730093CB021091CB0201E00E94C90A56
:1014F0000091CB020093D80205E000937D0208958D
:1015000001E00093D002089500E000937D020E9464
:10151000FF0A08950091D502009379020895F89486
:101520001091D5020091D4020E94C90A78940895BE
:101530000CE10E9469060093DA020DE10E9469063F
:1015400081CF1091D4020CE10E94C90A1091D502FA
:101550000DE10E94C90A08950EE10E9469060093F8
:10156000DA020FE1EBCF1091D4020EE10E94C90A1A
:101570001091D5020FE1EDCF00E00093DB02009364
:10158000DA02089501E000937E0200E000937F02FA
:10159000089520910B0330E0F901E45FFC4F0083D4
:1015A00020910B03F901E45EFC4F108300910B03C3
:1015B00003950F7000930B03089512E303E0E9DF36
:1015C00012E304E0E6DF11E005E0E3DF0895E1E681
:1015D000F2E0118110937B02008100937C0200E015
:1015E00000937D0210917B0203E0D3DF10917C0217
:1015F00004E0CFDF10917D0205E0CBDF089500E02D
:101600000093060300930003009301030093020379
:101610000093FD020093FE020093FF0200937D02FF
:101620000093FA02009305030093FB020093040366
:101630000093FC0210E003E1ACDF1091FB0204E137
:10164000A8DF1091FC0205E1A4DF1091FD0206E184
:10165000A0DF1091FE0207E19CDF1091FF0208E17C
:1016600098DF1091000309E194DF109101030AE172
:1016700090DF109102030BE18CDF1091050301E173
:1016800088DF1091040302E184DF089500E00093F5
:1016900006030091FD02009300030091FE020093F7
:1016A00001030091FF02009302030091FA020093EC
:1016B000FD020091FB020093FE020091FC020093E8
:1016C000FF0200917D020093FA020091050300934E
:1016D000FB02009104030093FC021091FA0203E163
:1016E00058DF1091FB0204E154DF1091FC0205E188
:1016F00050DF1091FD0206E14CDF1091FE0207E180
:1017000048DF1091FF0208E144DF1091000309E176
:1017100040DF109101030AE13CDF109102030BE16D
:1017200038DF0895E1E6F2E000811181EFE5F2E0B3
:10173000208131810217130728F400811181E1E62D
:10174000F2E006C0E1E6F2E000811181EFE5F2E0AF
:1017500020813181021B130BE5E6F2E00083118347
:101760000895BA93AA93DEDFA5E6B2E0ED91FC916D
:10177000339710F401E001C000E0A991B9910895F8
:101780005B2F4A2FE1E6F2E000811181EFE5F2E004
:101790002081318102171307A0F400811181E1E655
:1017A000F2E020813181021B130BE5E6F2E00083B9
:1017B0001183A5E6B2E0ED91FC913497B0F401E01D
:1017C00015C0E1E6F2E000811181EFE5F2E0208151
:1017D0003181021B130BE5E6F2E000831183A5E6DD
:1017E000B2E0ED91FC913397E9CF00E0A42FB52F43
:1017F000089500917802013011F401E001C000E089
:10180000102F10FD949A10FF94980FEF03BD959A36
:1018100001E00093ED020093F00200E00093F1027A
:101820000093F2020093F3020895959808EC009358
:10183000EC0200E003BD0093ED020093F002089576
:101840003B2F2A2FA8E5B3E0ED91FC91309629F0CB
:101850003197F9F0319739F15EC0959800E003BDFA
:1018600000917802002311F000E001C001E0009334
:101870007802E8E7F2E0008100FD949A00FF949876
:10188000E8E5F3E0008111810F5F1F4F00831183B2
:1018900042C008E010E2E4E5F3E0008311830FEFBB
:1018A00003BD959AEDCF00916E0210916F02011762
:1018B00091F100916E0200936F02E4E5F3E0008184
:1018C0001181012B99F0008111810150104000839A
:1018D000118300811181012B49F4959800E003BD2B
:1018E00000EA1FE0E6E5F3E000831183E6E5F3E0BC
:1018F00000811181012B79F000811181015010408C
:101900000083118300811181012B29F400E0E8E5B7
:10191000F3E000830183A22FB32F08950FE90DBFD9
:1019200000E00EBFC0E8D0E00E94CC0C002311F014
:101930000E94DC0C0E9431060E94F60C0C94F60CFE
:1019400000241124EFE0001F111F001C111C0416BD
:10195000150610F0041A150AEA95AAF7001F111FC0
:10196000A001009510950895519541955040089516
:10197000FF27552312F4F160F7DF112312F4F095DD
:1019800007D00E94A00CF0FD03D0F1FDEDCF08952B
:10199000119501951040089501E0089520E002D0CE
:1019A000E9F708952D9301501040202F212B089521
:1019B0002591F8DFE9F7089582EF99E1FC0105919F
:1019C0001491FC013296A591B491FC0134962591B5
:1019D0003491422F432B19F0F901EADF01C0DEDF19
:1019E000069619E18E3F910748F308950000889507
:1019F000FECF4501150200007501A000FE19000090
:101A00000000000101020202030300400500050777
:101A10000A03150B06110000011501100100010950
:101A200001110300000200070801100200040A1659
:101A30000110020003051601100201000B0601103F
:101A40000202000B0601100202000B060110020345
:101A5000000B0601100204000B0601200205060718
:101A600017140200010607120110010605110000FB
:101A7000010D0000010C011001010105011002011E
:101A8000010B0201100201010B0201100202020B04
:101A90000401100102020101100202020B040110F4
:101AA0000202020B0401100203030B0201100203E5
:101AB000030B0201100104040501100204040B02CF
:101AC00001100204040B0201100105050F011001B1
:101AD00005050E022003070607061217140230023E
:101AE000060708060A12100220020607090612104D
:101AF0000330010A08060B0806130330010B080621
:101B00000A080610003B266C80A9108D9B161F3416
:101B10007294A2AF2D42498779B6680C64BDC35850
:101B20005E50C9D3E6DDF0000102030607090A0B87
:101B30000C1013141617191A1B1D1E1F2021212209
:101B400023C502EA02430372037A038D039503A0BF
:101B500003BE03C403D303E403ED03F3033704AB71
:101B600004D0047105A105B605CE05F305D102D850
:031B700002E1028D
:00000001FF
