:100000000C949F100C9466000C9467000C9468008C
:100010000C9469000C946A000C946B000C946C00B6
:100020000C946D000C946E000C9481000C94820072
:100030000C94CE000C94CF000C94D5000C94D600F8
:100040000C94D7000C94D8000C94D9000C94DA00CE
:100050000C94DB000001870D100B01140B01350B14
:1000600001600B028B0B07B70B01BF0B01220C01C8
:100070004B0C058C0D30520C015E0C13620C016EA2
:100080000C018D0C01930C01A20C01BF0C01EB0CB7
:1000900001330D018C0D018C0D018C0D014D0D01F5
:1000A000520D0A5B0D01660D01710D017C0DFB0007
:1000B0000000470E0B00B30DBE0DCF0DE30DEC0D90
:1000C000FC0D090E120E2F0E390E430E18951895C1
:1000D000189518951895189518951895FA93EA9308
:1000E0001A930A931FB700916F0202BFEDE6F2E088
:1000F0000081039500831FBF09911991E991F9913E
:1001000018951895FA93EA933A932A931A930A93B7
:100110003FB70BB1009380020AB1009381020CB18A
:100120000093820200E00093CB02ECECF2E000814D
:100130000B7F0083009180020871002331F0ECEC0A
:10014000F2E000810260008321C020918102E3E897
:10015000F2E00091C40210E0000F111FE00FF11F48
:100160002183209182020091C40210E0000F111F30
:10017000F801ED57FD4F2083E4ECF2E00081039598
:100180000083E4ECF2E000810F7100833FBF09912E
:10019000199129913991E991F991189518950A9336
:1001A00001E00093C90209911895189518951895C2
:1001B000189518951895189501D0089500E00093AA
:1001C0002102009121020430C0F42FEFE5E1F2E0BA
:1001D0000091210210E0E00FF11F248B2FEFE5E1E9
:1001E000F2E00091210210E0E00FF11F208BE5E129
:1001F000F2E0048503950487E4CF00E00093160243
:100200000895102F193110F004E0089510931D0285
:1002100002E00093160200E00895BA93AA93D80171
:1002200000911602025049F00A9521F10A9509F44D
:100230004FC10A9509F469C16AC1E0EAF0E0009192
:100240001D0210E0E00FF11FE75DFE4F00810093FB
:100250001F02E0EAF0E000911D0210E00F5F1F4F67
:10026000E00FF11FE75DFE4F00810093200203E0E5
:100270000093160200911F0210912002011708F04E
:1002800022C1E0EAF0E000911F0210E0E00FF11F50
:10029000EA5FFE4F008100931E02E5E1F2E0028575
:1002A00003950287E0EAF0E000911E0210E0E00F03
:1002B000F11F048500932102E5E1F2E00185039539
:1002C0000187009121020F7000931A02E0EAF0E02A
:1002D00000911E0210E0E00FF11F0485009321023F
:1002E000E5E1F2E0018503950187009121020F709D
:1002F000009323020091210202950F7000931B02CC
:10030000E0EAF0E000911E0210E0E00FF11F04852A
:1003100000932102E5E1F2E0018503950187009158
:1003200021020F7000931C020091210202950F70B0
:100330000093240200E0009318020091180210912B
:100340001A02011740F5E0EAF0E000911E0210E009
:10035000E00FF11F048500932202E5E1F2E0018540
:10036000039501874091220205E112E020912202CB
:1003700030E0F901E056FF4F208130E0020F131FFB
:10038000F8010089401709F075CFE5E1F2E003813B
:1003900003950383D2CF00912302002341F100E0B3
:1003A0000093180200911802109123020117F8F42B
:1003B00000911E02102F139510931E02E0EAF0E048
:1003C00010E0E00FF11F048510E0000F111FF8018D
:1003D000ED51FE4F00811181F8010995002309F4C8
:1003E00049CFE5E1F2E0038103950383DBCF00E031
:1003F000009318020091180210911B02011708F0D7
:1004000041C0E0EAF0E000911E0210E0E00FF11FB1
:10041000048500932202E5E1F2E00185039501875E
:100420000091220210E0F801E056FF4F0081009396
:100430002102E5E1F2E00091210210E0E00FF11F5E
:1004400004890F3F59F420912202E5E1F2E0009186
:10045000210210E0E00FF11F248B0EC0E5E1F2E075
:100460000091210210E0E00FF11F04891091220297
:10047000011711F003E04CC0E5E1F2E003810395C0
:100480000383B8CF00911C02002309F4F3CEE0EA05
:10049000F0E000911E0210E0E00FF11F04850C93C4
:1004A00000911C02023068F0E5E1F2E0018503955D
:1004B0000187E5E1F2E007810A95078304E00093F4
:1004C000160201E025C005E00093160200E020C0FE
:1004D00000911C020023A9F0E0EAF0E000911E0266
:1004E00010E0E00FF11F04850C93E5E1F2E00185D7
:1004F00003950187E5E1F2E007810A95078301E0B2
:1005000007C003E0009316028BCE00E001C007E0B5
:10051000A991B99108958A93219700911602053007
:1005200049F08E017ADE802F8130D9F3882311F0D3
:10053000082F34C000E00093210200912102043012
:1005400048F5E5E1F2E00091210210E0E00FF11F33
:1005500004890F3FC9F0E5E1F2E00091210210E0CB
:10056000E00FF11F2489E5E1F2E00091210210E0A3
:10057000E00FF11F208B2FEFE5E1F2E00091210267
:1005800010E0E00FF11F248BE5E1F2E00485039514
:100590000487D3CF00E00093160200E021968991F2
:1005A000089500913102002331F4009132020023BA
:1005B00011F401E0089500E008952AE030E00EE033
:1005C00010E00E94A7060895E3E3F2E02081318164
:1005D00009E010E00E949B060895E5E3F2E0208127
:1005E000318103E110E00E94B306089500913B02BF
:1005F0000130E9F4E7E3F2E002811381012BB9F065
:10060000E7E3F2E00281138101501040028313837B
:10061000E7E3F2E002811381012B49F4E7E3F2E022
:1006200000810E949F0A002311F00E948D0D00910D
:100630004102013001F5EDE3F2E002811381012B6B
:10064000D1F0EDE3F2E0028113810150104002830A
:100650001383EDE3F2E002811381012B61F4EDE3FA
:10066000F2E000810E949F0A002311F00E948D0D8C
:1006700000E000934102009147020130E9F4E3E415
:10068000F2E002811381012BB9F0E3E4F2E0028190
:1006900013810150104002831383E3E4F2E00281EE
:1006A0001381012B49F4E3E4F2E000810E949F0AE8
:1006B000002311F00E948D0D0895EFE5F2E0008116
:1006C0001181EBE6F2E00083118300E00093ED027C
:1006D0000E942F0F002349F008E00E949F0A002388
:1006E00009F44CC00E948D0D0895E1E6F2E000810E
:1006F0001181EFE5F2E0208131810217130790F4B8
:1007000001E000937702EFE5F2E000811181E1E67C
:10071000F2E020813181021B130BE5E6F2E0008359
:100720001183089501E00093ED0200E010E0EFE591
:10073000F2E000831183EBE6F2E0008111810135E4
:1007400020E0120750F0EBE6F2E000811181005545
:100750001040EFE5F2E00083118300E000937702A0
:10076000E1E6F2E000811181EFE5F2E020813181E4
:10077000021B130BE5E6F2E00083118308950E944B
:100780002F0F002361F00E945C0F0E949F0E08E073
:100790000E949F0A002309F10E948D0D0895E1E651
:1007A000F2E000811181003020E4120770F00E9415
:1007B0005C0F07E000937C020E94BA0E01E00E94E9
:1007C0009F0A002311F00E948D0DE7E6F2E0008100
:1007D00011810F5F1F4F0083118308950AE00E946B
:1007E0009F0A002311F00E948D0D08950E94370882
:1007F0000E94080701E010E00E94EC0A00B308958F
:1008000001E00E949F0A002311F00E948D0D0895BF
:100810000E945C0F01E0009377020CEC00937802D9
:100820000E943E0F089500E00093760201E00093DD
:10083000730200917402002331F000E0009374020F
:1008400000E0009373020091ED02002359F001E0F3
:100850000093F70200E00093F6020093F50200E037
:1008600000937302089502E0009376020E94950EB1
:10087000089501E00093790200E010E0E7E6F2E07D
:10088000008311830FEF0093780203BD0E943E0F97
:10089000089501E0009376020E94950E00913102C6
:1008A000002311F407D0089500913202002309F4C7
:1008B000AFDF089500E0009377020CEC009378021C
:1008C0000E943E0F08950E945C0F00E000934102D9
:1008D000089500917602023079F40E945C0F02E0E4
:1008E00000937C020E94BA0E01E00E949F0A00233E
:1008F000C9F10E948D0D089503E0009376020FEF79
:100900000093780200EA1FE0E3E3F2E00083118342
:1009100000917702002341F007E00E949F0A002324
:1009200051F00E948D0D07C002E00E949F0A002333
:1009300011F00E948D0D07E20093D6020091CA02C9
:100940000093D70203B50093D80206B30093D902EF
:1009500000B30093DA0202E10E949F0A002311F023
:100960000E948D0D0895A89500917502002329F02D
:10097000E5E7F2E000810A9500830091730200230D
:1009800049F100E000937302E0E7F2E00081039593
:10099000008300917002002371F4E1E7F2E000812E
:1009A0000395008300917102002329F4E2E7F2E04D
:1009B0000081039500831091700208E00E94940D5D
:1009C0001091710209E00E94940D109172020AE0E8
:1009D0000E94940D00917F02002331F504E1009301
:1009E0007F02EEE7F2E0008103950083009131027F
:1009F000013021F000913202013011F4C09A0895C3
:100A000000917602002311F0C098089500917E02B3
:100A100010917D020117D0F016B301E0012708BB49
:100A200000E000937E020895EFE7F2E000810A956E
:100A3000008300917F02002349F4009131020130CC
:100A400021F000913202013009F4C098089500911C
:100A5000D0020F3F31F00091D0021091CA0201176D
:100A600081F400E00093CF020E94F60A0091CF02C9
:100A7000002339F402E10E949F0A002311F00E9432
:100A80008D0DECECF2E000810D7F0083ECECF2E0E8
:100A900000810E7F008300E00093DC0200E0009301
:100AA000C602089500E00093C702ECECF2E000817A
:100AB00001FF11C0ECECF2E000810D7F0083ECEC53
:100AC000F2E000810E7F008300E00093DC0200E092
:100AD0000093C60208950091CD02002379F00091A1
:100AE000C5020093C6020093D00201E00093DC022D
:100AF000ECECF2E00081016000830895ECECF2E0A0
:100B0000008100FF99C00091DC02053008F082C02E
:100B10000091C502E6ECF2E01081100F10832091E5
:100B2000C5020091DC0210E0F801E053FD4F208384
:100B3000ECEDF2E00081039500830091C302109177
:100B4000C402011709F478C00091C30210E0000F3D
:100B5000111FF801ED57FD4F00810093C502E3E836
:100B6000F2E00091C30210E0000F111FE00FF11F2F
:100B7000018101FF02C001E001C000E00093CD024D
:100B8000E3ECF2E0008103950083E3ECF2E0008106
:100B90000F7100830091CD02002379F00091C5020E
:100BA0000093C6020093D00201E00093DC02ECEC5B
:100BB000F2E000810160008308950091DC020530BD
:100BC000B0F40091C502E6ECF2E01081100F108342
:100BD0002091C5020091DC0210E0F801E053FD4FC6
:100BE0002083ECEDF2E0008103950083A6CFECECCE
:100BF000F2E000810E7F00830091C6021091C502D1
:100C00000117D1F400E10E949F0A0023A9F00E947D
:100C10008D0D0895ECECF2E000810E7F00830091D1
:100C2000C6021091C502011739F400E10E949F0A23
:100C3000002311F00E948D0D08950091DD0210E057
:100C4000F801EA52FD4F00810093C8020091DD02D5
:100C5000053060F40091C802E6EDF2E01581100F56
:100C60001583EDEDF2E0008103950083ECECF2E0FA
:100C700000810F7D00830091C8020CB9089506B36E
:100C80000F7E08BB579AECECF2E00081077F0083EF
:100C90000091C702002339F00FE00E949F0A002351
:100CA00011F00E948D0D0895579806B3006108BB9E
:100CB000ECECF2E000810860008300E00093DD02CC
:100CC00000E00093DB02509A0895ECECF2E0008122
:100CD00005FF08C001E10E949F0A002391F00E94D5
:100CE0008D0D08950091DD02053020F001E10E9494
:100CF0009F0A089508E10E949F0A002311F00E94B4
:100D00008D0D0895F8940091CB02033068F0ECEC5F
:100D1000F2E000810460008307E10E949F0A002343
:100D200041F00E948D0D05C0EBECF2E000810395CF
:100D3000008378940895EDE3F2E000831183EDE3FE
:100D4000F2E02283338340E0409341020895E7E3D9
:100D5000F2E000831183E7E3F2E02283338341E092
:100D600040933B020895E3E4F2E000831183E3E45F
:100D7000F2E02283338341E0409347020895FFCF9E
:100D80008A932297F8940E94CD080E942D080E9411
:100D9000DC000E949D0A00E00E949F0A78940E9455
:100DA000940F8E010E94C30A0E3FC9F308810E946E
:100DB0000101802F882311F00881E1DF8E010F5F90
:100DC0001F4F0E940D01802F813061F4098110E0D6
:100DD000000F111FF801EB51FE4F00811181F80146
:100DE0000995ECCF882311F0082FC9DF0E948B02F0
:100DF000802F8823A1F2082FC2DFD1CF102FE199D5
:100E0000FECF00E00FBB1EBB01E00CBB0DB308958D
:100E100001E00E94FE060093CA020091CA02063257
:100E200040F40091CA020F3F21F00091CA02002352
:100E300019F403E60093CA0206E00E94FE0600933E
:100E40007A0207E00E94FE0600937B0230917A024C
:100E500020E000917B0210E0020F131FE9E6F2E0B0
:100E60000083118303E00E94FE0600937A0204E0EF
:100E70000E94FE0600937B0205E00E94FE0600939E
:100E80007C0200917C020023B9F4829915C08399F9
:100E900013C010917A0200E0E1E6F2E000831183D2
:100EA00000917B0210E0E1E6F2E020813181200F29
:100EB000311F2083318309C000E010E0E1E6F2E059
:100EC0000083118306E000937C0208E00E94FE0686
:100ED0000093700209E00E94FE06009371020AE08E
:100EE0000E94FE060093720200917202007C0023B1
:100EF00039F000E0009372020093710200937002D7
:100F000003E10E94FE060093010304E10E94FE0635
:100F10000093020305E10E94FE0600930303E2E052
:100F2000F3E0008107FF0AC000E000930103009393
:100F300002030093030301E000930D0306E10E9406
:100F4000FE060093040307E10E94FE0600930503DA
:100F500008E10E94FE0600930603E5E0F3E000814D
:100F600007FF07C000E0009304030093050300930C
:100F7000060309E10E94FE06009307030AE10E94AE
:100F8000FE06009308030BE10E94FE06009309038E
:100F9000E8E0F3E0008107FF07C000E000930703EB
:100FA000009308030093090301E10E94FE060093E9
:100FB0000C0302E10E94FE0600930B0300910B0359
:100FC00000930A03ECE0F3E0008107FF0AC000E0B1
:100FD00000930C0300930B0310910C0301E10E949A
:100FE000940D00910B0300930A03EBE0F3E0008102
:100FF0000395008300910A0310910B03011729F454
:10100000EBE0F3E000810395008310910B0302E114
:101010000E94940D00910B03002351F4ECE0F3E0E7
:1010200000810395008310910C0301E10E94940D4F
:101030000CE10E94FE0600930E030DE10E94FE06E5
:1010400000930F030EE10E94FE06009310030FE1D0
:101050000E94FE0600931103089500E003BDC39AA9
:10106000C0989498959808EC0093EB02089500E0DE
:101070000093EB0200EF10E0E3E3F2E00083118362
:1010800003E010E0E5E3F2E00083118300E0009369
:101090006D0200E000936E0200E00093C402009332
:1010A000C30200E00093C90200E00093C70205E01C
:1010B00000937D0200E000937E0202E00093DE02D6
:1010C00002E00093DF0202E00093E0020AE00093F6
:1010D000E1020AE00093E20200E00093E3020AE08A
:1010E0000093E40200E00093E50200E00093310287
:1010F0000AE00093E60200E00093E70200E00093BC
:10110000320200E00093E8020CE30093E90200E001
:101110000093EA0201E00093740201E00093770279
:1011200000E00093EC0200E00093ED0200E0009389
:101130000D0308EC0093750200E010E0E5E3F3E036
:101140000383148300E010E0E5E3F3E000871187F8
:1011500000E010E0E5E3F3E00587168700E010E02B
:10116000E5E3F3E0028B138B00E010E0E5E3F3E04E
:10117000078B108F00E010E0E5E3F3E0048F158F9C
:1011800000E010E0E5E3F3E001A312A300E010E0CB
:10119000E5E3F3E006A317A3089504B70093EE0276
:1011A00004B70E7F04BF04B70D7F04BF04B70B7FE5
:1011B00004BF04B7077F04BF04B70F7E04BF04B7A2
:1011C000006804BF00E00ABB09E507BB00E004BB00
:1011D00000EB01BB0FE001BD02E003BF08E000939C
:1011E0006F0200916F0202BF09B7016009BF05B726
:1011F0000A6005BF02E705BD00E003BD00E002BDD7
:101200000895B19B1EC00091DE02002389F0EEED2F
:10121000F2E000810A9500830091DE02002341F490
:1012200001E00093E00202E00093DF0201E0089594
:101230000091DE02002319F402E00093DF0200E0D7
:1012400008950091DF02002389F0EFEDF2E00081C4
:101250000A9500830091DF02002341F400E000932F
:10126000E00202E00093DE0201E008950091DF0257
:10127000002319F402E00093DE0200E0089506B3B3
:101280000093F00200B30093EF02BBDF0023E1F113
:10129000E2EFF2E0008103950083009175020023E4
:1012A00099F584990EC0E1E6F2E000811181012BED
:1012B00041F0E1E6F2E0008111810150104000832D
:1012C0001183849B08C0E1E6F2E0008111810F5F89
:1012D0001F4F008311830BE00E949F0A002311F02F
:1012E0000E948D0D0091FA02002329F0EAEFF2E04E
:1012F00000810A9500830091FC02002329F0E0E0C0
:10130000F3E0008103950083B29B1AC00091E102D3
:10131000002319F40AE00093E2020091E1020023A5
:1013200079F0E1EEF2E000810A9500830091E1029C
:10133000002331F401E00093E3020AE00093E202AB
:10134000B2991AC00091E202002319F40AE0009356
:10135000E1020091E202002379F0E2EEF2E0008186
:101360000A9500830091E202002331F400E000932B
:10137000E3020AE00093E102829B21C00091E402B3
:10138000002319F40AE00093E5020091E40200232F
:10139000B1F0E4EEF2E000810A9500830091E402EE
:1013A000002369F401E0009331020AE00093E502B2
:1013B00003E00E949F0A002311F00E948D0D829984
:1013C00033C00091E502002319F40AE00093E4021F
:1013D0000091E502002341F1E5EEF2E000810A957B
:1013E00000830091E5020023F9F400E0009331024C
:1013F0000AE00093E4020CE00E949F0A002311F02F
:101400000E948D0D0091EC02002371F000E010E0CD
:10141000E1E6F2E00083118300E000937C0210918A
:101420007C0205E00E94940D839B26C00091E60299
:10143000002319F40AE00093E7020091E60200237A
:10144000D9F0E6EEF2E000810A9500830091E60211
:10145000002391F401E0009332020AE00093E702D6
:1014600005E00E949F0A002311F00E948D0D04E008
:1014700000937C020E94BA0E83991AC00091E70281
:10148000002319F40AE00093E6020091E70200232A
:1014900079F0E7EEF2E000810A9500830091E7021F
:1014A000002331F400E0009332020AE00093E602E8
:1014B000869B18C00091E802002321F40CE30093FE
:1014C000E9020895E8EEF2E000810A9500830091B8
:1014D000E802002389F500E00093EA020CE30093A0
:1014E000E90208950091E902002321F40CE300933E
:1014F000E8020895E9EEF2E000810A950083009188
:10150000E9020023C9F401E00093EA020CE300932E
:10151000E80200917602002341F40DE00E949F0A48
:10152000002351F00E948D0D08950AE00E949F0A49
:10153000002311F00E948D0D089548D00895682F62
:10154000802F20915D0230E000915E0210E00F5F7D
:101550001F4F2017310711F40DEF13C000915E02E9
:1015600010E0F801E75BFD4F808300915E0210E020
:101570000F5F1F4F44E150E00E94C91040935E028C
:1015800000E0862F0895392F282FC80100915D02B1
:1015900010915E02011711F40EEF15C000915D026B
:1015A00010E0F801E75BFD4F0081FC010083009132
:1015B0005D0210E00F5F1F4F44E150E00E94C91030
:1015C00040935D0200E0822F932F089500E0009386
:1015D0005E0200935D0208959801232F20BD202F05
:1015E00029B92CED2AB92EE820BD08950091D10229
:1015F0000093D6020091CA020093D7020091D20252
:101600000093D8020091D3020093D9020091D40232
:101610000093DA020091D202E4E5F0E00C94E610C7
:1016200004E00093DA0208950091D302005049F0DB
:101630000A9559F00A9569F00A9579F0095089F0F0
:1016400008950091D4020BBB08950091D40208BB09
:1016500008950091D40205BB08950091D40202BB05
:1016600008950091D40204BF08950091D302005060
:1016700049F00A9569F00A9589F00A95A9F0095090
:10168000C9F0089509B31091D402102B1BBB089523
:1016900006B31091D402102B18BB089503B3109118
:1016A000D402102B15BB089500B31091D402102B57
:1016B00012BB08950091D40214B7102B14BF0895E3
:1016C0000091D302005049F00A9569F00A9589F01B
:1016D0000A95A9F00950C9F0089509B31091D402F0
:1016E00010231BBB089506B31091D402102318BB1E
:1016F000089503B31091D402102315BB089500B3CD
:101700001091D402102312BB08950091D40214B793
:10171000102314BF08950091D3020058F9F0005827
:1017200049F00A9559F00A9569F00A9579F009503F
:1017300089F0089509B30093DA02089506B300937F
:10174000DA02089503B30093DA02089500B3009318
:10175000DA02089504B70093D4020895F894009132
:10176000D4020E94FE060093D9027894089501B530
:101770000093D9020091EE020093DA0208950091DD
:10178000D302005041F00A9579F00A9571F10A955B
:1017900009F44FC0089500917C020093D902009192
:1017A000EE020093DA0208950091D402015029F06C
:1017B0000A9559F00A9589F0089500E00093D9023E
:1017C000009101030093DA02089500E00093D9022A
:1017D000009104030093DA02089500E00093D90217
:1017E000009107030093DA0208950091D40201509A
:1017F00029F00A9561F00A9599F008950091020385
:101800000093D902009103030093DA020895009136
:1018100005030093D902009106030093DA020895AC
:10182000009108030093D902009109030093DA02A2
:10183000089500910C030093D90200910B030093CB
:10184000DA02089500917C020093D9020091760299
:101850000093DA020091EC02002311F000E801C0CD
:1018600000E0E6EDF2E01481102B1483829B02C0AD
:1018700000E401C000E0E6EDF2E01481102B1483D7
:10188000839B02C000E201C000E0E6EDF2E01481BB
:10189000102B1483089502E00093D90207E000930F
:1018A000DA0208950091D9020093FF020091DA0252
:1018B0000093FB0201E00093FC02089500E0009316
:1018C000FC020895E9E6F2E01181012F0093D902AC
:1018D000E9E6F2E000810093DA0208953091D30244
:1018E00020E00091D40210E0020F131FE9E6F2E0BD
:1018F000008311830091D30200937A020091D402F5
:1019000000937B0210917A0206E00E94940D1091E0
:101910007B0207E00E94940D089500E00093FC0212
:101920000E945C0F089500E00093FC0204E0009325
:10193000760204E00E949F0A002309F4EDC00E9491
:101940008D0D089500913202002309F0E5C0009149
:10195000D902013011F401E001C000E000937702E8
:101960000091DA02002321F400EC0093780204C015
:101970000091DA02009378020E943E0F08950091D0
:10198000EC02002361F0E1E6F2E01181012F009307
:10199000D902E1E6F2E000810093DA020895E1E67F
:1019A000F2E01181012F0093D902E1E6F2E000811B
:1019B0000093DA020091ED02002309F4ADC0EBE6DA
:1019C000F2E01181012F0093D902EBE6F2E00081F1
:1019D0000093DA02089500E00093FC020091D30224
:1019E0000F3408F099C000917C02002309F094C0E4
:1019F0000091EC02002309F08FC00091D302002374
:101A000029F40091D402043008F486C03091D30246
:101A100020E00091D40210E0020F131FE3E6F2E091
:101A200000831183E3E6F2E000811181E9E6F2E050
:101A3000208131810217130740F4E3E6F2E00081D0
:101A40001181EFE5F2E0008311830E942F0F002344
:101A500009F062C006E00E949F0A002309F45CC0FE
:101A60000E948D0D08950091EA02013091F40091D9
:101A7000D4020F730093CA021091CA0201E00E94BF
:101A8000940D0091CA020093D70205E000937C02F6
:101A9000089501E00093CF0208950091D4020093CD
:101AA00078020895F8941091D4020091D3020E9414
:101AB000940D789408950CE10E94FE060093D902DB
:101AC0000DE10E94FE060093DA0208951091D30200
:101AD0000CE10E94940D1091D4020DE10E94940D2E
:101AE00008950EE10E94FE060093D9020FE10E94C4
:101AF000FE060093DA0208951091D3020EE10E94CF
:101B0000940D1091D4020FE10E94940D089500E00D
:101B10000093DA020093D902089501E000937D0258
:101B200000E000937E0208952091130330E0F90154
:101B3000EB5EFC4F00832091130330E0F901EB5D75
:101B4000FC4F1083E3E1F3E0208123952083E3E160
:101B5000F3E020812F70208308950091F902E0EBDB
:101B6000F0E00C94E6100091FC02013009F092C004
:101B7000E9EFF2E000810395008308950091FB02F4
:101B80000093FA0294980FEF03BD959A01E0009339
:101B9000EC02E9EFF2E000810395008308950091E3
:101BA000FA02002309F076C000E003BD959808EC26
:101BB0000093EB0200E00093EC02E9EFF2E0008119
:101BC0000395008308950CE30093FD02E9EFF2E032
:101BD0000081039500830895EDEFF2E000810A95FE
:101BE00000830091FD02002309F054C0E9EFF2E008
:101BF0000081039500830895949A0FEF03BD959A91
:101C000001E00093EC02E9EFF2E00081039500832C
:101C1000089500E000930003E9EFF2E000810395EE
:101C2000008308951CD1002359F40091FB0210E0B9
:101C3000005F1F4F2091000330E00217130754F597
:101C4000959808EC0093EB0200E003BD00E00093E0
:101C5000EC02E9EFF2E00081039500830895009122
:101C6000FF020093FE02E9EFF2E00081039500839A
:101C700008950091FE02002369F4E9EFF2E000818B
:101C800003950083089500E00093F902089500E0B1
:101C90000093F902089500911303109114030117A2
:101CA00009F442C000911203005039F00A9559F02E
:101CB0000A9519F10A9539F134C0E19935C001E06E
:101CC00000931203089500E00FBB0091140310E08D
:101CD000F801EB5EFC4F00810EBB0091140310E095
:101CE000F801EB5DFC4F00810DBB04E00CBB02E092
:101CF0000CBB02E0009312030895E19915C003E0C4
:101D0000009312030895E4E1F3E00081039500835A
:101D1000E4E1F3E000810F70008300E00093120320
:101D2000089500E000931203089512E303E0FCDE3F
:101D300012E304E0F9DE11E005E0F6DE0895E1E6E5
:101D4000F2E01181012F00937A02E1E6F2E00081D6
:101D500000937B0200E000937C0210917A0203E082
:101D6000E3DE10917B0204E0DFDE10917C0205E0EF
:101D7000DBDE089500E000930D030091040300935F
:101D800007030091050300930803009106030093E5
:101D900009030091010300930403009102030093DF
:101DA0000503009103030093060300917C02009356
:101DB000010300910C030093020300910B030093B5
:101DC00003031091010303E1AFDE1091020304E16C
:101DD000ABDE1091030305E1A7DE1091040306E1D9
:101DE000A3DE1091050307E19FDE1091060308E1D1
:101DF0009BDE1091070309E197DE109108030AE1C9
:101E000093DE109109030BE18FDE0895E1E6F2E025
:101E100000811181EFE5F2E0208131810217130783
:101E200078F4EFE5F2E000811181E1E6F2E0208153
:101E30003181021B130BE5E6F2E000831183089564
:101E4000E1E6F2E000811181EFE5F2E020813181ED
:101E5000021B130BE5E6F2E0008311830895BA93A9
:101E6000AA93D4DFA5E6B2E0ED91FC91339710F48C
:101E700001E001C000E0A991B991089500917702B5
:101E8000013011F401E001C000E0102F10FD949A20
:101E900010FF94980FEF03BD959A01E00093EC02B8
:101EA00001E00093F10200E00093F20200E00093F1
:101EB000F3020093F4020895959808EC0093EB0266
:101EC00000E003BD00E00093EC0200E00093F102AB
:101ED0000895E3EFF2E00081039500830091F3029F
:101EE000083C09F500E00093F302E4EFF2E0008122
:101EF000039500830091F4020330A8F00091F202F0
:101F0000053058F4D9DF03E000937C0233DF09E0A9
:101F10000E949F0A002309F000DE00E00093F40213
:101F200000E00093F202089500916D0210916E029C
:101F3000011709F46AC000916D0200936E020E94BD
:101F4000F6020E943F090091F102002309F0C1DF6F
:101F50000091EB02002351F0EBEEF2E000810A95D4
:101F600000830091EB02002309F4959AE8EFF2E078
:101F700000810A9500830091F802002389F404E1AE
:101F80000093F8020091FE02002329F0EEEFF2E048
:101F900000810A95008300910D03002309F0EADE19
:101FA0007ADEDBDD0091F702002379F1E5EFF2E064
:101FB0000081039500830091F502083C30F100E0B8
:101FC0000093F502E6EFF2E00081039500830091B3
:101FD000F6020230D0F0EBE6F2E000811181EFE58D
:101FE000F2E00083118300E00093F60200E000932A
:101FF000ED0200E00093F70232DF002331F406E047
:102000000E949F0A002309F088DD0091C902002385
:1020100009F45BC00BB100938002E0E8F2E00081BC
:1020200007FF17C00AB1009381020CB1009382022E
:102030005098009182020093CE020091C802109144
:10204000CE02011761F0ECECF2E000810062008347
:1020500006C0ECECF2E0008100620083509800E0E2
:102060000093C9020091DD02063028F4ECECF2E0A6
:10207000008105FF0DC0ECECF2E000810F7D0083D4
:1020800001E10E949F0A002309F458C046DD08952B
:102090000091DD0210E0F801EA52FD4F008100934B
:1020A000C8020091DD02053039F00091C802E6ED6A
:1020B000F2E01581100F1583EDEDF2E0008103953C
:1020C00000830091C8020CB908950091C3021091D9
:1020D000C402011799F10091C702002379F501E0CC
:1020E0000093C7020091C30210E0000F111FF80116
:1020F000ED57FD4F00810093C502E3E8F2E0009147
:10210000C30210E0000F111FE00FF11F018101FF5A
:1021100002C001E001C000E00093CD020FE00E9488
:102120009F0A002309F0F9DCE3ECF2E0008103955B
:102130000083E3ECF2E000810F71008308950FE962
:102140000DBF00E00EBFC0E8D0E00E942B110023BD
:1021500011F00E943B110E94C0060E9455110C9480
:10216000551100241124EFE0001F111F001C111C49
:102170000416150610F0041A150AEA95AAF7001FAE
:10218000111FA0010095109508955195419550405B
:102190000895FF27552312F4F160F7DF112312F49D
:1021A000F09507D00E94B110F0FD03D0F1FDEDCF06
:1021B0000895119501951040089575916591559177
:1021C0004591159011FA259035900895F9DF041B7B
:1021D00010E003C0F4DF041B150B20E030E005C065
:1021E000ECDF041B150B260B370BB8F010FC17C0E7
:1021F00045910590E00FF11F0417100540E02407FA
:10220000340758F436F404910024F101E01BF0097E
:102210000994E00FF11F25903590F101099411F414
:10222000D6F7F1CF31960EF0319650E060E070E0D5
:1022300045914B3F48F089F34F3F29F04E3F11F055
:102240007591659155914591041B150B260B370B24
:1022500039F318F3E7CF01E0089520E002D0E9F761
:1022600008952D9301501040202F212B0895259182
:10227000F8DFE9F7089580EB92E2FC0105911491F3
:10228000FC013296A591B491FC01349625913491CC
:10229000422F432B19F0F901EADF01C0DEDF069679
:1022A00012E28C3B910748F3089500008895FECF19
:1022B0004801150200007501A000BC2200000000CA
:1022C00000010102020203030040050005070A03A2
:1022D000150B061100000115011001000109011183
:1022E0000300000200070801100200040A16011092
:1022F000020003051601100201000B060110020284
:10230000000B0601100202000B0601100203000B75
:102310000601100204000B0601200205060717142F
:102320000200010607120110010605110000010D4F
:102330000000010C01100101010501100201010B57
:102340000201100201010B0201100202020B040142
:10235000100102020101100202020B04011002022C
:10236000020B0401100203030B0201100203030B12
:102370000201100104040501100204040B02011003
:102380000204040B0201100105050F0110010505EF
:102390000E02200307060706121714023002060772
:1023A00008060A121002200206070906121003305E
:1023B000010A08060B0806130330010B08060A0879
:1023C0000610003B266C80A9108D9B161F3472945A
:1023D000A2AF2D42498779B6680C64BDC3585E50E0
:1023E000C9D3E6DDF0000102030607090A0B0C1051
:1023F00013141617191A1B1D1E1F2021212223D169
:10240000025D03BF03EE03F6030004080413043364
:1024100004390449045A0463046904B304270552C7
:10242000051D063F06540665068206DD02E402ED40
:0124300002A9
:00000001FF
