:100000000C94AB100C9460000C9461000C94620092
:100010000C9463000C9464000C9465000C946600CE
:100020000C9467000C9468000C947B000C947C008A
:100030000C94C8000C94C9000C94CF000C94D00010
:100040000C94D1000C94D2000C94D3000C94D400E6
:100050000C94D50000019F0D560B015A0B017B0B30
:1000600001A60B02D10B07FD0B01050C01680C0169
:10007000910C05A40D30980C01A40C13A80C01B42C
:100080000C01D30C01D90C01E80C01050D01310D57
:1000900001770D01A40D01A40D01A40D01910D0125
:1000A000960DFB000000590E0B00CB0DD60DE70D91
:1000B000F80D010E110E1E0E270E410E4B0E550EA1
:1000C00018951895189518951895189518951895C8
:1000D000FA93EA931A930A931FB700916F0202BF33
:1000E000EDE6F2E00081039500831FBF09911991AD
:1000F000E991F99118951895FA93EA933A932A930E
:100100001A930A933FB70BB1009380020AB1009390
:1001100081020CB10093820200E00093CB02ECEC70
:10012000F2E000810B7F00830091800208710023C0
:1001300031F0ECECF2E000810260008321C02091FC
:100140008102E3E8F2E00091C40210E0000F111F09
:10015000E00FF11F2183209182020091C40210E080
:10016000000F111FF801ED57FD4F2083E4ECF2E082
:10017000008103950083E4ECF2E000810F710083BD
:100180003FBF0991199129913991E991F9911895F8
:1001900018950A9301E00093C902099118951895E2
:1001A00018951895189518951895189501D00895D3
:1001B00000E000932102009121020430C0F42FEFEF
:1001C000E5E1F2E00091210210E0E00FF11F248B45
:1001D0002FEFE5E1F2E00091210210E0E00FF11FC6
:1001E000208BE5E1F2E0048503950487E4CF00E08D
:1001F000009316020895102F193110F004E00895AD
:1002000010931D0202E00093160200E00895BA93D5
:10021000AA93D80100911602025049F00A9521F1E3
:100220000A9509F44FC10A9509F469C16AC1E0EA67
:10023000F0E000911D0210E0E00FF11FE75DFE4FBE
:10024000008100931F02E0EAF0E000911D0210E03F
:100250000F5F1F4FE00FF11FE75DFE4F008100931E
:10026000200203E00093160200911F021091200269
:10027000011708F022C1E0EAF0E000911F0210E04F
:10028000E00FF11FEA5FFE4F008100931E02E5E1DF
:10029000F2E0028503950287E0EAF0E000911E0299
:1002A00010E0E00FF11F048500932102E5E1F2E088
:1002B000018503950187009121020F7000931A02B6
:1002C000E0EAF0E000911E0210E0E00FF11F04856B
:1002D00000932102E5E1F2E0018503950187009199
:1002E00021020F70009323020091210202950F70EA
:1002F00000931B02E0EAF0E000911E0210E0E00F24
:10030000F11F048500932102E5E1F2E001850395E8
:100310000187009121020F7000931C0200912102BD
:1003200002950F700093240200E0009318020091E0
:10033000180210911A02011740F5E0EAF0E000916E
:100340001E0210E0E00FF11F048500932202E5E198
:10035000F2E00185039501874091220205E112E058
:100360002091220230E0F901E056FF4F208130E079
:10037000020F131FF8010089401709F075CFE5E15E
:10038000F2E0038103950383D2CF0091230200237F
:1003900041F100E00093180200911802109123022D
:1003A0000117F8F400911E02102F139510931E02EE
:1003B000E0EAF0E010E0E00FF11F048510E0000F2C
:1003C000111FF801ED51FE4F00811181F8010995CF
:1003D000002309F449CFE5E1F2E0038103950383AB
:1003E000DBCF00E0009318020091180210911B026D
:1003F000011708F041C0E0EAF0E000911E0210E0B1
:10040000E00FF11F048500932202E5E1F2E001858F
:10041000039501870091220210E0F801E056FF4F9A
:10042000008100932102E5E1F2E00091210210E059
:10043000E00FF11F04890F3F59F420912202E5E1FA
:10044000F2E00091210210E0E00FF11F248B0EC0BA
:10045000E5E1F2E00091210210E0E00FF11F0489D4
:1004600010912202011711F003E04CC0E5E1F2E027
:10047000038103950383B8CF00911C02002309F484
:10048000F3CEE0EAF0E000911E0210E0E00FF11F71
:1004900004850C9300911C02023068F0E5E1F2E063
:1004A000018503950187E5E1F2E007810A9507835D
:1004B00004E00093160201E025C005E00093160257
:1004C00000E020C000911C020023A9F0E0EAF0E067
:1004D00000911E0210E0E00FF11F04850C93E5E18E
:1004E000F2E0018503950187E5E1F2E007810A95D5
:1004F000078301E007C003E0009316028BCE00E003
:1005000001C007E0A991B99108958A9321970091BC
:100510001602053049F08E017ADE802F8130D9F342
:10052000882311F0082F34C000E0009321020091CD
:100530002102043048F5E5E1F2E00091210210E0EB
:10054000E00FF11F04890F3FC9F0E5E1F2E00091EF
:10055000210210E0E00FF11F2489E5E1F2E00091B3
:10056000210210E0E00FF11F208B2FEFE5E1F2E018
:100570000091210210E0E00FF11F248BE5E1F2E091
:10058000048503950487D3CF00E00093160200E0B2
:1005900021968991089500913102002331F4009150
:1005A0003202002311F401E0089500E008952AE0EA
:1005B00030E00EE010E00E94EB060895E3E3F2E085
:1005C0002081318109E010E00E94DF060895E5E313
:1005D000F2E02081318103E110E00E94F7060895E6
:1005E00000913B020130E9F4E7E3F2E0028113817C
:1005F000012BB9F0E7E3F2E00281138101501040D2
:1006000002831383E7E3F2E002811381012B49F4B3
:10061000E7E3F2E000810E94DD0A002311F00E946E
:10062000A50D00914102013001F5EDE3F2E00281F8
:100630001381012BD1F0EDE3F2E00281138101502F
:10064000104002831383EDE3F2E002811381012B5A
:1006500061F4EDE3F2E000810E94DD0A002311F075
:100660000E94A50D00E00093410200914702013075
:10067000E9F4E3E4F2E002811381012BB9F0E3E451
:10068000F2E0028113810150104002831383E3E4FE
:10069000F2E002811381012B49F4E3E4F2E00081EE
:1006A0000E94DD0A002311F00E94A50D0895EFE5D8
:1006B000F2E000811181EBE6F2E00083118300E0BB
:1006C0000093ED020E94410F002349F008E00E94D0
:1006D000DD0A002309F44CC00E94A50D0895E1E64F
:1006E000F2E000811181EFE5F2E020813181021713
:1006F000130790F401E000937702EFE5F2E0008148
:100700001181E1E6F2E020813181021B130BE5E665
:10071000F2E000831183089501E00093ED0200E010
:1007200010E0EFE5F2E000831183EBE6F2E00081F8
:100730001181013520E0120750F0EBE6F2E0008174
:10074000118100551040EFE5F2E00083118300E0D5
:1007500000937702E1E6F2E000811181EFE5F2E03B
:1007600020813181021B130BE5E6F2E00083118347
:1007700008950E94410F002361F00E946E0F0E94B5
:10078000B10E08E00E94DD0A002309F10E94A50DC8
:100790000895E1E6F2E000811181003020E41207C3
:1007A00070F00E946E0F07E000937C020E94CC0E56
:1007B00001E00E94DD0A002311F00E94A50DE7E68A
:1007C000F2E0008111810F5F1F4F008311830895B4
:1007D0000AE00E94DD0A002311F00E94A50D089591
:1007E0000E9478080E944C070091CE02002329F451
:1007F00001E010E00E942A0B04C009E110E00E9411
:10080000340BC698089501E00E94DD0A002311F020
:100810000E94A50D08950E946E0F01E000937702DB
:100820000CEC009378020E94500F089500E00093B2
:10083000760201E00093730200917402002331F00C
:1008400000E00093740200E0009373020091ED0257
:10085000002359F001E00093F70200E00093F60254
:100860000093F50200E000937302089502E0009304
:1008700076020E94A70E089501E00093790200E03D
:1008800010E0E7E6F2E0008311830FEF00937802B7
:1008900003BD0E94500F089501E0009376020E946C
:1008A000A70E00913102002311F407D008950091A2
:1008B0003202002309F4AFDF089500E000937702CD
:1008C0000CEC009378020E94500F08950E946E0F66
:1008D00000E000934102089500917602023079F41D
:1008E0000E946E0F02E000937C020E94CC0E01E099
:1008F0000E94DD0A0023C9F10E94A50D089503E0BE
:10090000009376020FEF0093780200EA1FE0E3E322
:10091000F2E00083118300917702002341F007E0A9
:100920000E94DD0A002351F00E94A50D07C002E0DD
:100930000E94DD0A002311F00E94A50D07E200933A
:10094000D7020091CA020093D80203B50093D902DE
:1009500006B30093DA0200B30093DB0202E10E94C7
:10096000DD0A002311F00E94A50D0895A8950091BD
:100970007502002329F0E5E7F2E000810A95008383
:1009800000917302002349F100E000937302E0E755
:10099000F2E000810395008300917002002371F45E
:1009A000E1E7F2E0008103950083009171020023EA
:1009B00029F4E2E7F2E000810395008310917002D0
:1009C00008E00E94AC0D1091710209E00E94AC0D8C
:1009D000109172020AE00E94AC0D00917F02002388
:1009E00031F504E100937F02EEE7F2E00081039528
:1009F000008300913102013021F000913202013078
:100A000011F4C09A089500917602002311F0C09865
:100A1000089500917E0210917D020117D0F016B367
:100A200001E0012708BB00E000937E020895EFE794
:100A3000F2E000810A95008300917F02002349F4CF
:100A400000913102013021F000913202013009F4AD
:100A5000C09808950091D1020F3F31F00091D1026A
:100A60001091CA02011781F400E00093D0020E94A5
:100A70003C0B0091D002002339F402E10E94DD0A10
:100A8000002311F00E94A50DECECF2E000810D7F37
:100A90000083ECECF2E000810E7F008300E0009325
:100AA000DD0200E00093C602089500E00093C70253
:100AB000ECECF2E0008101FF11C0ECECF2E000810F
:100AC0000D7F0083ECECF2E000810E7F008300E0FC
:100AD0000093DD0200E00093C60208950091CD026C
:100AE000002379F00091C5020093C6020093D10261
:100AF00001E00093DD02ECECF2E000810160008394
:100B00000895ECECF2E0008100FF99C00091DD0255
:100B1000053008F082C00091C502E6ECF2E01081D9
:100B2000100F10832091C5020091DD0210E0F80142
:100B3000EF52FD4F2083EDEDF2E00081039500833D
:100B40000091C3021091C402011709F478C000910A
:100B5000C30210E0000F111FF801ED57FD4F008197
:100B60000093C502E3E8F2E00091C30210E0000F39
:100B7000111FE00FF11F018101FF02C001E001C060
:100B800000E00093CD02E3ECF2E0008103950083E6
:100B9000E3ECF2E000810F7100830091CD020023AD
:100BA00079F00091C5020093C6020093D10201E0E2
:100BB0000093DD02ECECF2E0008101600083089517
:100BC0000091DD020530B0F40091C502E6ECF2E0E0
:100BD0001081100F10832091C5020091DD0210E0FA
:100BE000F801EF52FD4F2083EDEDF2E00081039517
:100BF0000083A6CFECECF2E000810E7F0083009131
:100C0000C6021091C5020117D1F400E10E94DD0A6D
:100C10000023A9F00E94A50D0895ECECF2E00081FC
:100C20000E7F00830091C6021091C502011739F4AE
:100C300000E10E94DD0A002311F00E94A50D089535
:100C40000091DE0210E0F801E952FD4F00810093AF
:100C5000C8020091CE02002389F40091DE02053023
:100C6000E8F40091C802E7EDF2E01581100F15835A
:100C7000EEEDF2E000810395008310C00091DE02EA
:100C8000043060F40091C802E7EDF2E0148110270F
:100C90001483EEEDF2E0008103950083ECECF2E0CA
:100CA00000810F7D00830091C8020CB9089506B33E
:100CB0000F7E08BB579AECECF2E00081077F0083BF
:100CC0000091C702002339F00FE00E94DD0A0023E3
:100CD00011F00E94A50D0895579806B3006108BB56
:100CE000ECECF2E000810860008300E00093DE029B
:100CF0000091CE02002329F400E00093DC02509A18
:100D0000089500E00093DB020895ECECF2E000812E
:100D100005FF08C001E10E94DD0A002351F10E9495
:100D2000A50D08950091CE02002381F40091DE020A
:100D3000053020F001E10E94DD0A089508E10E94DB
:100D4000DD0A0023B1F00E94A50D08950091DE0296
:100D5000043040F001E10E94DD0A002351F00E94BE
:100D6000A50D089508E10E94DD0A002311F00E94FC
:100D7000A50D0895F8940091CB020330C8F0ECEC77
:100D8000F2E00081046000830091CE02002341F470
:100D900007E10E94DD0A002381F00E94A50D0DC02D
:100DA00004E10E94DD0A002341F00E94A50D05C068
:100DB000EBECF2E000810395008378940895EDE375
:100DC000F2E000831183EDE3F2E02283338340E01D
:100DD000409341020895E7E3F2E000831183E7E3E3
:100DE000F2E02283338341E040933B020895E3E441
:100DF000F2E000831183E3E4F2E02283338341E0F5
:100E0000409347020895FFCF8A932297F8940E9457
:100E10000B090E9470080E94D6000E94DB0A00E0C5
:100E20000E94DD0A78940E94A30F8E010E94010B9C
:100E30000E3FC9F308810E94FB00802F882311F028
:100E40000881E1DF8E010F5F1F4F0E940701802F95
:100E5000813061F4098110E0000F111FF801EB519E
:100E6000FE4F00811181F8010995ECCF882311F024
:100E7000082FC9DF0E948502802F8823A1F2082F46
:100E8000C2DFD1CF102FE199FECF00E00FBB1EBB18
:100E900001E00CBB0DB3089501E00E9442070093EE
:100EA000CA020091CA02063240F40091CA020F3F02
:100EB00021F00091CA02002319F403E60093CA024C
:100EC00002E00E9442070093CE020091CE0202305F
:100ED00020F40091CE020F3F19F400E00093CE02FF
:100EE00000E00093CE0206E00E94420700937A02DF
:100EF00007E00E94420700937B0230917A0220E0D3
:100F000000917B0210E0020F131FE9E6F2E000837C
:100F1000118303E00E94420700937A0204E00E94DA
:100F2000420700937B0205E00E94420700937C0287
:100F300000917C020023B9F4829915C0839913C0F3
:100F400010917A0200E0E1E6F2E000831183009163
:100F50007B0210E0E1E6F2E020813181200F311FB9
:100F60002083318309C000E010E0E1E6F2E0008375
:100F7000118306E000937C0208E00E944207009380
:100F8000700209E00E944207009371020AE00E9489
:100F900042070093720200917202007C002339F034
:100FA00000E000937202009371020093700203E16B
:100FB0000E9442070093010304E10E94420700934C
:100FC000020305E10E94420700930303E2E0F3E01D
:100FD000008107FF0AC000E00093010300930203B1
:100FE0000093030301E000930D0306E10E94420712
:100FF0000093040307E10E9442070093050308E100
:101000000E94420700930603E5E0F3E0008107FF3A
:1010100007C000E000930403009305030093060358
:1010200009E10E944207009307030AE10E94420778
:10103000009308030BE10E94420700930903E8E0D4
:10104000F3E0008107FF07C000E00093070300936F
:1010500008030093090301E10E94420700930C0377
:1010600002E10E94420700930B0300910B030093DF
:101070000A03ECE0F3E0008107FF0AC000E0009300
:101080000C0300930B0310910C0301E10E94AC0DC3
:1010900000910B0300930A03EBE0F3E0008103955A
:1010A000008300910A0310910B03011729F4EBE070
:1010B000F3E000810395008310910B0302E10E948D
:1010C000AC0D00910B03002351F4ECE0F3E0008140
:1010D0000395008310910C0301E10E94AC0D08956B
:1010E00000E003BDC39AC09894989598C69A089555
:1010F00000EF10E0E3E3F2E00083118303E010E08F
:10110000E5E3F2E00083118300E000936D0200E06C
:1011100000936E0200E00093C4020093C30200E05B
:101120000093C90200E00093C70205E000937D022E
:1011300000E000937E0202E00093DF0202E00093F1
:10114000E00202E00093E1020AE00093E2020AE01A
:101150000093E30200E00093E4020AE00093E5025A
:1011600000E00093E60200E0009331020AE0009301
:10117000E70200E00093E80200E00093320200E0A2
:101180000093E9020CE30093EA0200E00093EB0213
:1011900001E00093740201E00093770200E0009305
:1011A000EC0200E00093ED0200E000930D0308EC78
:1011B0000093750200E010E0E1E3F3E003831483A1
:1011C00000E010E0E1E3F3E00087118700E010E0C9
:1011D000E1E3F3E00587168700E010E0E1E3F3E0E8
:1011E000028B138B00E010E0E1E3F3E0078B108F3C
:1011F00000E010E0E1E3F3E0048F158F00E010E081
:10120000E1E3F3E001A312A300E010E0E1E3F3E087
:1012100006A317A3089504B70093EE0204B70E7F48
:1012200004BF04B70D7F04BF04B70B7F04BF04B72E
:10123000077F04BF04B70F7E04BF04B7006804BF74
:1012400000E00ABB09E507BB00E004BB00EB01BB03
:101250000FE001BD02E003BF08E000936F020091C0
:101260006F0202BF09B7016009BF05B70A6005BF79
:1012700002E705BD00E003BD00E002BD0895B19B9B
:101280001EC00091DF02002389F0EFEDF2E0008143
:101290000A9500830091DF02002341F401E00093EE
:1012A000E10202E00093E00201E008950091DF0214
:1012B000002319F402E00093E00200E00895009199
:1012C000E002002389F0E0EEF2E000810A9500835D
:1012D0000091E002002341F400E00093E10202E00B
:1012E0000093DF0201E008950091E002002319F469
:1012F00002E00093DF0200E0089506B30093F002DD
:1013000000B30093EF02BBDF0023E1F1E2EFF2E074
:1013100000810395008300917502002399F584995B
:101320000EC0E1E6F2E000811181012B41F0E1E61F
:10133000F2E0008111810150104000831183849BF1
:1013400008C0E1E6F2E0008111810F5F1F4F0083CA
:1013500011830BE00E94DD0A002311F00E94A50D0D
:101360000091FA02002329F0EAEFF2E000810A95E9
:1013700000830091FC02002329F0E0E0F3E000810B
:1013800003950083B29B1AC00091E202002319F476
:101390000AE00093E3020091E202002379F0E2EE1A
:1013A000F2E000810A9500830091E202002331F40B
:1013B00001E00093E4020AE00093E302B2991AC04C
:1013C0000091E302002319F40AE00093E202009185
:1013D000E302002379F0E3EEF2E000810A95008356
:1013E0000091E302002331F400E00093E4020AE0FC
:1013F0000093E202829B21C00091E502002319F4D0
:101400000AE00093E6020091E5020023B1F0E5EE68
:10141000F2E000810A9500830091E502002369F45F
:1014200001E0009331020AE00093E60203E00E942B
:10143000DD0A002311F00E94A50D829933C00091AE
:10144000E602002319F40AE00093E5020091E602A7
:10145000002341F1E6EEF2E000810A95008300915D
:10146000E6020023F9F400E0009331020AE0009361
:10147000E5020CE00E94DD0A002311F00E94A50D98
:101480000091EC02002371F000E010E0E1E6F2E0F0
:101490000083118300E000937C0210917C0205E040
:1014A0000E94AC0D839B26C00091E702002319F433
:1014B0000AE00093E8020091E7020023D9F0E7EE8A
:1014C000F2E000810A9500830091E702002391F485
:1014D00001E0009332020AE00093E80205E00E9476
:1014E000DD0A002311F00E94A50D04E000937C02A8
:1014F0000E94CC0E83991AC00091E802002319F4CF
:101500000AE00093E7020091E802002379F0E8EE98
:10151000F2E000810A9500830091E802002331F493
:1015200000E0009332020AE00093E702869B18C0B5
:101530000091E902002321F40CE30093EA020895EC
:10154000E9EEF2E000810A9500830091E9020023B0
:1015500089F500E00093EB020CE30093EA020895A2
:101560000091EA02002321F40CE30093E9020895BC
:10157000EAEEF2E000810A9500830091EA0200237E
:10158000C9F401E00093EB020CE30093E90200913F
:101590007602002341F40DE00E94DD0A002351F0A1
:1015A0000E94A50D08950AE00E94DD0A002311F0B3
:1015B0000E94A50D089548D00895682F802F20918E
:1015C0005D0230E000915E0210E00F5F1F4F2017B8
:1015D000310711F40DEF13C000915E0210E0F80125
:1015E000E75BFD4F808300915E0210E00F5F1F4FAD
:1015F00044E150E00E94D51040935E0200E0862F47
:101600000895392F282FC80100915D0210915E02C4
:10161000011711F40EEF15C000915D0210E0F80102
:10162000E75BFD4F0081FC01008300915D0210E04B
:101630000F5F1F4F44E150E00E94D51040935D02C0
:1016400000E0822F932F089500E000935E02009344
:101650005D0208959801232F20BD202F29B92CED7C
:101660002AB92EE820BD08959801232F20BD202FF0
:1016700029B928ED2AB908950091D2020093D70222
:101680000091CA020093D8020091D3020093D902BC
:101690000091D4020093DA020091D5020093DB029C
:1016A0000091D302E4E5F0E00C94F21004E0009322
:1016B000DB0208950091D402005049F00A9559F0D8
:1016C0000A9569F00A9579F0095089F0089500911A
:1016D000D5020BBB08950091D50208BB0895009177
:1016E000D50205BB08950091D50202BB0895009173
:1016F000D50204BF08950091D402005049F00A9524
:1017000069F00A9589F00A95A9F00950C9F0089581
:1017100009B31091D502102B1BBB089506B310918D
:10172000D502102B18BB089503B31091D502102BCE
:1017300015BB089500B31091D502102B12BB08956C
:101740000091D50214B7102B14BF08950091D40254
:10175000005049F00A9569F00A9589F00A95A9F0B8
:101760000950C9F0089509B31091D50210231BBB8D
:10177000089506B31091D502102318BB089503B342
:101780001091D502102315BB089500B31091D50216
:10179000102312BB08950091D50214B7102314BF73
:1017A00008950091D4020058F9F0005849F00A95C4
:1017B00059F00A9569F00A9579F0095089F0089571
:1017C00009B30093DB02089506B30093DB0208958A
:1017D00003B30093DB02089500B30093DB02089586
:1017E00004B70093D5020895F8940091D5020E94A1
:1017F00042070093DA027894089501B50093DA0263
:101800000091EE020093DB0208950091D402005093
:1018100041F00A9579F00A9571F10A9509F44FC0E3
:10182000089500917C020093DA020091EE02009389
:10183000DB0208950091D502015029F00A9559F074
:101840000A9589F0089500E00093DA0200910103FF
:101850000093DB02089500E00093DA020091040394
:101860000093DB02089500E00093DA020091070381
:101870000093DB0208950091D502015029F00A95EA
:1018800061F00A9599F00895009102030093DA023D
:10189000009103030093DB02089500910503009378
:1018A000DA02009106030093DB0208950091080319
:1018B0000093DA02009109030093DB02089500917E
:1018C0000C030093DA0200910B030093DB020895EE
:1018D00000917C020093DA02009176020093DB0211
:1018E0000091EC02002311F000E801C000E0E7EDF8
:1018F000F2E01481102B1483829B02C000E401C02B
:1019000000E0E7EDF2E01481102B1483839B02C00A
:1019100000E201C000E0E7EDF2E01481102B148337
:10192000089502E00093DA0204E00093DB020895D8
:101930000091DA020093FF020091DB020093FB02A8
:1019400001E00093FC02089500E00093FC0208957A
:10195000E9E6F2E01181012F0093DA02E9E6F2E014
:1019600000810093DB0208953091D40220E00091C1
:10197000D50210E0020F131FE9E6F2E000831183A5
:101980000091D40200937A020091D50200937B0269
:1019900010917A0206E00E94AC0D10917B0207E0E4
:1019A0000E94AC0D089500E00093FC020E946E0FAF
:1019B000089500E00093FC0204E00093760204E046
:1019C0000E94DD0A002309F4BFC00E94A50D0895FE
:1019D00000913202002309F0B7C00091DA02013011
:1019E00011F401E001C000E0009377020091DB02F6
:1019F000002321F400EC0093780204C00091DB0284
:101A0000009378020E94500F08950091EC02002389
:101A100061F0E1E6F2E01181012F0093DA02E1E6E4
:101A2000F2E000810093DB020895E1E6F2E011812B
:101A3000012F0093DA02E1E6F2E000810093DB027D
:101A40000091ED02002309F47FC0EBE6F2E0118182
:101A5000012F0093DA02EBE6F2E000810093DB0253
:101A6000089500E00093FC020091D4020F3408F0C6
:101A70006BC000917C02002309F066C00091EC026B
:101A8000002309F061C00091D402002329F40091E1
:101A9000D502043008F458C03091D40220E00091FF
:101AA000D50210E0020F131FE3E6F2E0008311837A
:101AB000E3E6F2E000811181E9E6F2E02081318184
:101AC0000217130740F4E3E6F2E000811181EFE52D
:101AD000F2E0008311830E94410F0023A9F506E084
:101AE0000E94DD0A002381F10E94A50D0895009156
:101AF000EB02013091F40091D5020F730093CA02FA
:101B00001091CA0201E00E94AC0D0091CA0200933C
:101B1000D80205E000937C02089501E00093D00212
:101B200008950091D502009378020895F8941091D9
:101B3000D5020091D4020E94AC0D7894089500E083
:101B40000093DB020093DA02089501E000937D0226
:101B500000E000937E02089520910F0330E0F90128
:101B6000EF5EFC4F008320910F0330E0F901EF5D41
:101B7000FC4F1083EFE0F3E0208123952083EFE01A
:101B8000F3E020812F70208308950091F902E4EAA8
:101B9000F0E00C94F2100091FC02013009F08CC0CE
:101BA000E9EFF2E000810395008308950091FB02C4
:101BB0000093FA0294980FEF03BD959A01E0009309
:101BC000EC02E9EFF2E000810395008308950091B3
:101BD000FA02002309F070C000E003BD959800E010
:101BE0000093EC02E9EFF2E0008103950083089591
:101BF0000CE30093FD02E9EFF2E00081039500831E
:101C00000895EDEFF2E000810A9500830091FD0256
:101C1000002309F051C0E9EFF2E000810395008351
:101C20000895949A0FEF03BD959A01E00093EC029A
:101C3000E9EFF2E0008103950083089500E000934E
:101C40000003E9EFF2E0008103950083089519D1C4
:101C5000002359F40091FB0210E0005F1F4F209118
:101C6000000330E0021713073CF5959800E003BD30
:101C700000E00093EC02E9EFF2E0008103950083BD
:101C800008950091FF020093FE02E9EFF2E0008167
:101C90000395008308950091FE02002369F4E9EFA3
:101CA000F2E0008103950083089500E00093F902BB
:101CB000089500E00093F902089500910F03109138
:101CC0001003011709F442C000910E03005039F0CF
:101CD0000A9559F00A9519F10A9539F134C0E1993C
:101CE00035C001E000930E03089500E00FBB0091A2
:101CF000100310E0F801EF5EFC4F00810EBB009175
:101D0000100310E0F801EF5DFC4F00810DBB04E013
:101D10000CBB02E00CBB02E000930E030895E199B6
:101D200015C003E000930E030895E0E1F3E00081A5
:101D300003950083E0E1F3E000810F70008300E091
:101D400000930E03089500E000930E03089512E33C
:101D500003E002DF12E304E0FFDE11E005E0FCDE59
:101D60000895E1E6F2E01181012F00937A02E1E6A5
:101D7000F2E0008100937B0200E000937C0210916E
:101D80007A0203E0E9DE10917B0204E0E5DE1091C7
:101D90007C0205E0E1DE089500E000930D03009170
:101DA00004030093070300910503009308030091C7
:101DB00006030093090300910103009304030091BB
:101DC00002030093050300910303009306030091AF
:101DD0007C020093010300910C0300930203009125
:101DE0000B03009303031091010303E1B5DE10918F
:101DF000020304E1B1DE1091030305E1ADDE1091B1
:101E0000040306E1A9DE1091050307E1A5DE1091A8
:101E1000060308E1A1DE1091070309E19DDE1091A0
:101E200008030AE199DE109109030BE195DE08959C
:101E3000E1E6F2E000811181EFE5F2E020813181FD
:101E40000217130778F4EFE5F2E000811181E1E673
:101E5000F2E020813181021B130BE5E6F2E0008302
:101E600011830895E1E6F2E000811181EFE5F2E0EF
:101E700020813181021B130BE5E6F2E00083118320
:101E80000895BA93AA93D4DFA5E6B2E0ED91FC9150
:101E9000339710F401E001C000E0A991B9910895D1
:101EA00000917702013011F401E001C000E0102F31
:101EB00010FD949A10FF94980FEF03BD959A01E0DE
:101EC0000093EC0201E00093F10200E00093F202C3
:101ED00000E00093F3020093F4020895959800E067
:101EE00003BD00E00093EC0200E00093F1020895CE
:101EF000E3EFF2E00081039500830091F302083CD8
:101F000009F500E00093F302E4EFF2E000810395AD
:101F100000830091F4020330A8F00091F202053032
:101F200058F4DCDF03E000937C0236DF09E00E9416
:101F3000DD0A002309F009DE00E00093F40200E06E
:101F40000093F202089500916D0210916E02011744
:101F500009F45CC000916D0200936E020E94F002D1
:101F60000E947D090091F102002309F0C1DFE8EF32
:101F7000F2E000810A9500830091F802002389F4C1
:101F800004E10093F8020091FE02002329F0EEEF35
:101F9000F2E000810A95008300910D03002309F00F
:101FA000FBDE8BDEF2DD0091F702002379F1E5EF35
:101FB000F2E00081039500830091F502083C30F1C6
:101FC00000E00093F502E6EFF2E000810395008364
:101FD0000091F6020230D0F0EBE6F2E000811181D0
:101FE000EFE5F2E00083118300E00093F60200E0E9
:101FF0000093ED0200E00093F70243DF002331F489
:1020000006E00E94DD0A002309F09FDD0091C9026D
:10201000002309F466C00BB100938002E0E8F2E00F
:10202000008107FF17C00AB1009381020CB1009331
:1020300082025098009182020093CF020091C80260
:102040001091CF02011761F0ECECF2E00081006228
:10205000008306C0ECECF2E000810062008350983F
:1020600000E00093C9020091CE02002399F500918F
:10207000DE02063028F4ECECF2E0008105FF0DC032
:10208000ECECF2E000810F7D008301E10E94DD0AAB
:10209000002309F45FC059DD08950091DE0210E0CD
:1020A000F801E952FD4F00810093C8020091DE0261
:1020B000053039F00091C802E7EDF2E01581100F0C
:1020C0001583EEEDF2E00081039500830091C802D4
:1020D0000CB9089505E10E94DD0A0023D9F135DD30
:1020E00008950091C3021091C402011799F1009163
:1020F000C702002379F501E00093C7020091C302F3
:1021000010E0000F111FF801ED57FD4F0081009303
:10211000C502E3E8F2E00091C30210E0000F111FD6
:10212000E00FF11F018101FF02C001E001C000E0EA
:102130000093CD020FE00E94DD0A002309F005DDC7
:10214000E3ECF2E0008103950083E3ECF2E0008130
:102150000F71008308950FE90DBF00E00EBFC0E8C6
:10216000D0E00E943711002311F00E9447110E9415
:1021700004070E9461110C94611100241124EFE006
:10218000001F111F001C111C0416150610F0041A64
:10219000150AEA95AAF7001F111FA00100951095D6
:1021A00008955195419550400895FF27552312F405
:1021B000F160F7DF112312F4F09507D00E94BD10F3
:1021C000F0FD03D0F1FDEDCF08951195019510407C
:1021D00008957591659155914591159011FA259045
:1021E00035900895F9DF041B10E003C0F4DF041BF1
:1021F000150B20E030E005C0ECDF041B150B260BAF
:10220000370BB8F010FC17C045910590E00FF11F97
:102210000417100540E02407340758F436F40491FD
:102220000024F101E01BF0090994E00FF11F259053
:102230003590F101099411F4D6F7F1CF31960EF0F3
:10224000319650E060E070E045914B3F48F089F3F3
:102250004F3F29F04E3F11F0759165915591459191
:10226000041B150B260B370B39F318F3E7CF01E0EE
:10227000089520E002D0E9F708952D930150104011
:10228000202F212B08952591F8DFE9F7089588EC98
:1022900092E2FC0105911491FC013296A591B49152
:1022A000FC01349625913491422F432B19F0F9010A
:1022B000EADF01C0DEDF069612E2843D910748F3B3
:1022C000089500008895FECF4401150200007501B5
:1022D000A000D4220000000000010102020203035A
:1022E0000040050005070A03150B06110000011543
:1022F000011001000109011103000002000708019B
:10230000100200040A160110020003051601100253
:1023100001000B0601100202000B06011002020070
:102320000B0601100203000B0601100204000B064D
:10233000012002050607171402000106071201100A
:10234000010605110000010D0000010C0110010142
:10235000010501100201010B0201100201010B0233
:1023600001100202020B040110010202010110021D
:1023700002020B0401100202020B0401100203030B
:102380000B0201100203030B0201100104040501FA
:10239000100204040B0201100204040B02011001DC
:1023A00005050F01100105050E02200307060706AB
:1023B000121714023002060708060A121002200241
:1023C0000607090612100330010A08060B08061357
:1023D0000330010B08060A080610003B266C80A992
:1023E000108D9B161F347294A2AF2D42498779B687
:1023F000680C64BDC3585E50C9D3E6DDF00001022D
:10240000030607090A0B0C1013141617191A1B1DC3
:102410001E1F2021212223CB025703B903E803F01A
:102420000303040B04160436043C044C045D0466E8
:10243000046C04B6042A055505200657066C06856B
:0924400006BA06D702DE02E7022B
:00000001FF
