:100000000C9415100C94A7000C94A8000C94A90053
:100010000C94AA000C94AB000C94AC000C94AD00B2
:100020000C94AE000C94AF000C94C2000C94C3006E
:100030000C9408010C9409010C940F010C9410010C
:100040000C9411010C9412010C9413010C941401E2
:100050000C941501950A970AB80AE30AD10C0E0B05
:10006000D10CD10CD10CD10CD10CD10C320B380BE2
:10007000860BA90BD10CD10CD10CD10CD60CD10C08
:10008000D10CD10CD10CD10CD10CD10CD10CD10C88
:10009000D10CD10CD10CD10CD10CD10CD10CD10C78
:1000A000D10CD10CD10CD10CD10CD10CD10CD10C68
:1000B000D10CD10CD10CD10CD10CD10CD10CD10C58
:1000C000D10CD10CD10CD10CD10CD10CD10CD10C48
:1000D000D10CD10CD10CD10CD10CD10CAD0BB70B78
:1000E000D10CD10CD10CD10CD10CD10CD10CD10C28
:1000F000D10CD10CD10CD10CD10CD10CD10CD10C18
:10010000D10CD10CBB0BBE0BD70BF50B030C1E0C8B
:10011000390C7C0CD60CD60C990C9F0CA40CD10C71
:10012000D10CD10CD10CD10CD10CD10CD10CD10CE7
:10013000AD0CB60CC10CC80C000D060D0C0D190D44
:100140001D0D260D330D370D4C0D510D540D189509
:100150001895189518951895189518951895FA9357
:10016000EA931A930A931FB70091700202BFEEE65A
:10017000F2E00081039500831FBF09911991E99175
:10018000F99118951895FA93EA931A920A923A936C
:100190002A931A930A933FB70BB1009381020AB1D5
:1001A000009382020CB10093830200E00093CC0222
:1001B000EDECF2E000810B7F008300918102087179
:1001C00021F000810260008319C000918202109129
:1001D000C50222E0129FF001EC57FD4F0183009110
:1001E00083021091C502129FF001EC57FD4F00836E
:1001F0000091C50203950F710093C5023FBF09919D
:1002000019912991399109901990E991F9911895CD
:1002100018950A9301E00093CA0209911895189560
:1002200018951895189518951895189501D0089552
:1002300000E00093210213C00FEF2091210230E073
:10024000F901EB5EFD4F048B20912102F901EB5E79
:10025000FD4F008BE5E1F2E00485039504870091F2
:100260002102043048F300E000931602089509319A
:1002700010F004E0089500931D0202E000931602BE
:1002800000E00895BA93AA93D80103C003E0009355
:10029000160200911602025049F00A95E9F00A95FB
:1002A00009F42AC10A9509F425C13CC100911D0237
:1002B00010E0F801E753FE4F008100931F02009108
:1002C0001D020F5F1F4FF801E753FE4F008100939F
:1002D000200203E00093160200911F0210912002F9
:1002E000011708F004C100911F0210E0F801EA555F
:1002F000FE4F008100931E02E5E1F2E002850395C6
:10030000028700911E02F801E056FF4F048500931A
:100310002102E5E1F2E001850395018700912102C8
:100320000F7000931A0200911E02F801E056FF4F71
:10033000048500932102E5E1F2E001850395018740
:10034000009121020F700093230200912102029577
:100350000F7000931B0200911E02F801E056FF4F40
:10036000048500932102E5E1F2E001850395018710
:10037000009121020F7000931C020091210202954E
:100380000F70009324021093180222C000911E02E5
:1003900010E0F801E056FF4F048500932202E5E1EA
:1003A000F2E001850395018720912202009122024B
:1003B000F801E056FF4F0081F801EB5EFD4F008928
:1003C000201709F089CFE5E1F2E00381039503836B
:1003D0000091180210911A020117C0F20091230235
:1003E000002331F100E0009318021CC000911E02AE
:1003F000102F139510931E0210E0F801E056FF4FE6
:10040000048512E0019FF001ED51FE4F0081118142
:10041000F8010995002309F45FCFE5E1F2E00381DB
:100420000395038300911802109123020117F0F243
:1004300000E0009318020DC02091220200912102D9
:10044000F801EB5EFD4F248BE5E1F2E003810395BB
:1004500003830091180210911B02011750F50091BF
:100460001E0210E0F801E056FF4F048500932202BF
:10047000E5E1F2E001850395018700912202F80190
:10048000E056FF4F00810093210200912102F80104
:10049000EB5EFD4F04890F3F79F200912102F801D4
:1004A000EB5EFD4F048910912202011769F203E00F
:1004B0003AC000911C02002309F40ECF00911E02E5
:1004C00010E0F801E056FF4F04850C9300911C02E8
:1004D000023058F0E5E1F2E00185039501870781DC
:1004E0000A95078304E00093160201E01CC005E0B2
:1004F0000093160200E017C000911C02002309F4CB
:10050000C5CE00911E0210E0F801E056FF4F0485B1
:100510000C93E5E1F2E001850395018707810A95D7
:100520000783E3CF07E0A991B9910895219700913E
:100530001602053031F08E01A5DE0130E1F3002313
:1005400069F500E00093210222C00091210210E031
:10055000F801EB5EFD4F04890F3FA1F000912102ED
:10056000F801EB5EFD4F248900912102F801EB5E5A
:10057000FD4F208B0FEF2091210230E0F901EB5E5F
:10058000FD4F048BE5E1F2E00485039504870091BB
:1005900021020430D0F200E0009316022196089563
:1005A00000913102002331F400913202002311F452
:1005B00001E0089500E008952AE030E00EE010E048
:1005C0000E947F060895E3E3F2E02081318109E093
:1005D00010E00E9475060895E5E3F2E02081318184
:1005E00003E110E00E948906089500913B0201306A
:1005F000B9F4E7E3F2E002811381012B89F0028173
:100600001381015010400283138302811381012B57
:1006100039F400810E94230A002311F00E94D70CB4
:10062000009141020130D1F4EDE3F2E00281138147
:10063000012BA1F00281138101501040028313832A
:1006400002811381012B51F400810E94230A0023AF
:1006500011F00E94D70C00E0009341020091470284
:100660000130B9F4E3E4F2E002811381012B89F057
:100670000281138101501040028313830281138190
:10068000012B39F400810E94230A002311F00E94FB
:10069000D70C0895EFE5F2E000811181EBE6F2E07E
:1006A0000083118300E00093EF020E946D0E00238F
:1006B00049F008E00E94230A002309F443C00E9485
:1006C000D70C0895E1E6F2E000811181EFE5F2E058
:1006D000208131810217130701E078F4009378023A
:1006E00000811181E1E6F2E020813181021B130BD0
:1006F000E5E6F2E00083118308950093EF0200E045
:1007000000830183EBE6F2E000811181013520E0F6
:10071000120740F00081118100551040EFE5F2E032
:100720000083118320937802E1E6F2E000811181D9
:10073000EFE5F2E020813181021B130BE5E6F2E0E8
:100740000083118308950E947C0E002361F00E94B3
:10075000D10E0E94A30D08E00E94230A002309F194
:100760000E94D70C0895E1E6F2E00081118100308B
:1007700020E4120770F00E94D10E07E000937D0282
:100780000E94020E01E00E94230A002311F00E9441
:10079000D70CE7E6F2E0008111810F5F1F4F008365
:1007A000118308950AE00E94230A002311F00E9499
:1007B000D70C08950E94F7070E94D5060091CF023A
:1007C000002329F401E010E00E94670A04C009E157
:1007D00010E00E946E0A00B3089501E00E94230A0F
:1007E000002311F00E94D70C08950E94D10E01E061
:1007F000009378020CEC009379020E94B50E0895E4
:1008000000E00093770201E000937402009175020A
:10081000002329F000E00093750200937402009118
:10082000EF02002351F001E00093F90200E0009391
:10083000F8020093F70200937402089502E0009317
:1008400077020E94990D089501E000937A0200E07A
:10085000E7E6F2E0008301830FEF0093790203BD26
:100860000E94B50E089501E0009377020E94990D51
:1008700000913102002311F407D008950091320253
:10088000002309F4B2DF089500E0009378020CEC35
:10089000009379020E94B50E089500E0009377025C
:1008A0000E94D10E00E0009341020895009177026A
:1008B000023079F40E94D10E02E000937D020E9482
:1008C000020E01E00E94230A002399F10E94D70C36
:1008D000089503E0009377020FEF0093790200EA96
:1008E0001FE0E3E3F2E0008311830091780200232C
:1008F00011F007E001C002E00E94230A002311F07A
:100900000E94D70C07E20093D8020091CB0200931B
:10091000D90203B50093DA0206B30093DB0200B3F9
:100920000093DC0202E10E94230A002311F00E94DE
:10093000D70C0895A89500917602002329F0E6E7E8
:10094000F2E000810A95008300917402002349F1CE
:1009500000E000937402E1E7F2E000810395008378
:1009600000917102002371F4E2E7F2E00081039547
:10097000008300917202002329F4E3E7F2E0008192
:10098000039500831091710208E00E94DE0C109123
:10099000720209E00E94DE0C109173020AE00E94CC
:1009A000DE0C00918002002331F504E10093800207
:1009B000EFE7F2E0008103950083009131020130FE
:1009C00021F000913202013011F4C09A0895009193
:1009D0007702002311F0C098089500917F021091D2
:1009E0007E020117D0F016B301E0012708BB00E03A
:1009F00000937F020895E0E8F2E000810A95008309
:100A000000918002002349F400913102013021F06D
:100A100000913202013009F4C09808950091D20289
:100A20000F3F31F00091D2021091CB02011781F4F7
:100A300000E00093D1020E94730A0091D1020023CA
:100A400039F402E10E94230A002311F00E94D70C1E
:100A5000EDECF2E000810C7F008300E00093DE0209
:100A60000093C702089500E00093C802EDECF2E0A5
:100A7000008101FF09C000810C7F008300E000932A
:100A8000DE020093C70208950091CE02002361F0B8
:100A90000091C6020093C7020091C7020093D202E0
:100AA00001E00093DE0253C0008100FF7CC0009192
:100AB000DE02053008F067C00091C602E7ECF2E004
:100AC0001081100F10832091C6020091DE0210E009
:100AD000F801EE52FD4F2083EEEDF2E00081039528
:100AE00000830091C4021091C502011709F45BC094
:100AF0000091C40212E0019FF001EC57FD4F00810C
:100B00000093C6020091C402019FF001EC57FD4F13
:100B1000018101FF02C001E001C000E00093CE02AC
:100B20000091C40203950F710093C4020091CE029C
:100B3000002389F00091C6020093C7020091C7020A
:100B40000093D20201E00093DE02EDECF2E00081BE
:100B50000160008308950091DE02053008F4ACCFF7
:100B6000EDECF2E000810E7F00830091C70210914E
:100B7000C6020117C1F400E10E94230A002399F084
:100B80000E94D70C089500810E7F00830091C70258
:100B90001091C602011739F400E10E94230A0023D4
:100BA00011F00E94D70C08950091DF0210E0F801C7
:100BB000E852FD4F00810093C9020091CF0200234B
:100BC0000091DF0251F40530B0F40091C902E8ED64
:100BD000F2E01581100F158309C0043060F4009114
:100BE000C902E8EDF2E0148110271483EFEDF2E082
:100BF000008103950083EDECF2E000810F7D00831E
:100C00000091C9020CB9089506B30F7E08BB579A2C
:100C1000EDECF2E00081077F00830091C802002321
:100C200039F00FE00E94230A002311F00E94D70C34
:100C30000895579806B3006108BBEDECF2E000811F
:100C40000860008300E00093DF020091CF020023E0
:100C500000E021F40093DD02509A08950093DC0235
:100C60000895EDECF2E0008105FD10C00091CF0287
:100C700000230091DF0241F4053020F001E10E94E1
:100C8000230A089508E103C0043040F001E10E9406
:100C9000230A002351F00E94D70C089508E10E9416
:100CA000230A002311F00E94D70C0895F8940091B4
:100CB000CC02033098F0EDECF2E000810460008398
:100CC0000091CF02002341F407E10E94230A002390
:100CD00051F00E94D70C07C004E1F7CFECECF2E032
:100CE00000810395008378940895EDE3F2E000839A
:100CF00011832283338300E0009341020895E7E3E8
:100D0000F2E0008311832283338301E000933B02EE
:100D10000895E3E4F2E0008311832283338301E04A
:100D2000009347020895FFCFBA93AA932297F894AD
:100D30000E945A080E94ED070E9416010E94210A93
:100D400000E00E94230A789418C0098112E0019FF4
:100D5000D001AB51BE4FED91FC9109958E010F5F13
:100D60001F4F0E944201013081F3002309F0DBDFB5
:100D70000E949602002309F0D6DF0E94060F8E0122
:100D80000E94430A0E3FC9F308810E9437010023E5
:100D900029F30881C8DFE2CFE199FECF10E01FBB45
:100DA0000EBB01E00CBB0DB3089501E00E94CC0620
:100DB0000093CB020091CB02063240F40091CB02AB
:100DC0000F3F21F00091CB02002319F403E60093BA
:100DD000CB0202E00E94CC0600E00093CF0206E0C6
:100DE0000E94CC0600937B0207E00E94CC06009391
:100DF0007C0230917B0200917C02E9E6F2E0008304
:100E0000318303E00E94CC0600937B0204E00E9441
:100E1000CC0600937C0205E00E94CC0600937D0284
:100E200000917D02002369F482990BC0839909C067
:100E300030917B0200917C02E1E6F2E00083318395
:100E400008C000E0E1E6F2E00083018306E00093E1
:100E50007D0208E00E94CC060093710209E00E9426
:100E6000CC06009372020AE00E94CC060093730243
:100E700000917302007C39F000E00093730200934C
:100E800072020093710203E10E94CC0600930303F7
:100E900004E10E94CC060093040305E10E94CC0605
:100EA00000930503E4E0F3E0008107FF0AC000E0DF
:100EB00000930303009304030093050301E00093F0
:100EC0000F0306E10E94CC060093060307E10E948F
:100ED000CC060093070308E10E94CC0600930803A8
:100EE000E7E0F3E0008107FF07C000E0009306039E
:100EF000009307030093080309E10E94CC060093C6
:100F000009030AE10E94CC0600930A030BE10E9448
:100F1000CC0600930B03EAE0F3E0008107FF07C073
:100F200000E00093090300930A0300930B0301E11F
:100F30000E94CC0600930E0302E10E94CC060093AF
:100F40000D0300910D0300930C03EEE0F3E000812C
:100F500007FF09C000E000930E0300930D0310E0AB
:100F600001E10E94DE0C00910D0300930C03EDE003
:100F7000F3E000810395008300910C0310910D03B1
:100F8000011719F400810395008310910D0302E10C
:100F90000E94DE0C00910D03002351F4EEE0F3E01B
:100FA00000810395008310910E0301E10E94DE0C85
:100FB0000CE10E94CC06009310030DE10E94CC06C8
:100FC000009311030EE10E94CC06009312030FE17F
:100FD0000E94CC0600931303089500E003BDC39A5A
:100FE000C0989498959808EC0093ED02089500E05D
:100FF00000936D020093ED0200EF10E0E3E3F2E0F6
:101000000083118303E0E5E3F2E000831183109392
:101010006E0210936F021093C5021093C4021093D6
:10102000CA021093C80205E000937E0210937F026B
:1010300002E00093E0020093E1020093E2020AE082
:101040000093E3020093E4021093E5020093E602AA
:101050001093E702109331020093E8021093E90223
:10106000109332021093EA020CE30093EB02109308
:10107000EC0201E000937502009378021093EE02F7
:101080001093EF0210930F0308EC00937602E7E34E
:10109000F3E0138314831087118715871687128B4B
:1010A000138B178B108F148F158F11A312A316A3F8
:1010B00017A3089504B70093F00204B70E7F04BF8E
:1010C00004B70D7F04BF04B70B7F04BF04B7077FCD
:1010D00004BF04B70F7E04BF04B7006804BF00E07C
:1010E0000ABB09E507BB00E004BB00EB01BB0FE056
:1010F00001BD02E003BF08E00093700202BF09B720
:10110000016009BF05B70A6005BF02E705BD00E041
:1011100003BD02BD0895B19B1EC00091E0020023F3
:1011200089F0E0EEF2E000810A9500830091E00290
:10113000002341F401E00093E20202E00093E102A7
:1011400001E008950091E002002319F402E0009309
:10115000E10200E008950091E102002389F0E1EE50
:10116000F2E000810A9500830091E102002341F43E
:1011700000E00093E20202E00093E00201E0089543
:101180000091E102002319F402E00093E00200E084
:10119000089506B30093F20200B30093F102BBDF9F
:1011A0000023D1F1E4EFF2E0008103950083009188
:1011B0007602002389F584990CC0E1E6F2E0008113
:1011C0001181012B31F00081118101501040008309
:1011D0001183849B08C0E1E6F2E0008111810F5F7A
:1011E0001F4F008311830BE00E94230A002311F09C
:1011F0000E94D70C0091FC02002329F0ECEFF2E0F2
:1012000000810A9500830091FE02002329F0E2E0AC
:10121000F3E0008103950083B29B1AC00091E302C2
:10122000002319F40AE00093E4020091E302002392
:1012300079F0E3EEF2E000810A9500830091E30289
:10124000002331F401E00093E5020AE00093E40298
:10125000B2991AC00091E402002319F40AE0009345
:10126000E3020091E402002379F0E4EEF2E0008171
:101270000A9500830091E402002331F400E000931A
:10128000E5020AE00093E302829B21C00091E6029E
:10129000002319F40AE00093E7020091E60200231C
:1012A000B1F0E6EEF2E000810A9500830091E602DB
:1012B000002369F401E0009331020AE00093E702A1
:1012C00003E00E94230A002311F00E94D70C8299A8
:1012D0002FC00091E702002319F40AE00093E60210
:1012E0000091E702002321F1E7EEF2E000810A9588
:1012F00000830091E7020023D9F400E0009331025B
:101300000AE00093E6020CE00E94230A002311F099
:101310000E94D70C0091EE02002351F010E0E1E6AC
:10132000F2E01083118310937D0205E00E94DE0C31
:10133000839B26C00091E802002319F40AE0009381
:10134000E9020091E8020023D9F0E8EEF2E0008122
:101350000A9500830091E802002391F401E00093D4
:1013600032020AE00093E90205E00E94230A00230A
:1013700011F00E94D70C04E000937D020E94020E3F
:1013800083991AC00091E902002319F40AE000933E
:10139000E8020091E902002379F0E9EEF2E0008131
:1013A0000A9500830091E902002331F400E00093E4
:1013B00032020AE00093E802869B14C00091EA0220
:1013C000002361F0EAEEF2E000810A9500830091CB
:1013D000EA020023A9F500E00093EC020CE300937D
:1013E000EB0208950091EB02002321F40CE300933B
:1013F000EA020895EBEEF2E000810A950083009185
:10140000EB020023E9F401E00093EC020CE300930B
:10141000EA0200917702002361F400916D0200233B
:1014200079F40DE00E94230A002351F00E94D70CAA
:1014300008950AE00E94230A002311F00E94D70CAD
:1014400008953FD0089540915D0250E020915E02E2
:1014500030E02F5F3F4F4217530711F40DEF08950F
:1014600020915E0230E0F901E75BFD4F00830091BF
:101470005E0210E00F5F1F4F44E10E943F10409357
:101480005E0200E0089520915D0230915E02231714
:1014900011F40EEF089520915D0230E0F901E75B51
:1014A000FD4F2081F801208300915D0210E00F5F65
:1014B0001F4F44E150E00E943F1040935D0200E066
:1014C000089500E000935E0200935D02089510BD50
:1014D00009B90CED0AB90EE800BD089510BD09B9AF
:1014E00008ED0AB908950091D3020093D802009143
:1014F000CB020093D9020091D4020093DA0200914A
:10150000D5020093DB020091D6020093DC02009129
:10151000D402023708F045C2F2E00F9FF001EC5A06
:10152000FF4F05901490F001099404E09FC10091D1
:10153000D502005049F00A9559F00A9569F00A95CC
:1015400079F0095089F008950091D6020BBB0895F7
:101550000091D60208BB08950091D60205BB0895FC
:101560000091D60202BB08950091D60204BF0895EF
:101570000091D502005049F00A9569F00A9589F06A
:101580000A95A9F00950C9F0089509B31091D6023F
:10159000102B1BBB089506B31091D602102B18BB5D
:1015A000089503B31091D602102B15BB089500B314
:1015B0001091D602102B12BB08950091D60214B7D9
:1015C000102B14BF08950091D502005049F00A95E0
:1015D00069F00A9589F00A95A9F00950C9F00895B3
:1015E00009B31091D60210231BBB089506B31091C6
:1015F000D602102318BB089503B31091D60210230E
:1016000015BB089500B31091D602102312BB0895A4
:101610000091D60214B7102314BF08950091D5028B
:101620000058B9F0005849F00A9549F00A9549F078
:101630000A9549F0095049F0089509B317C106B356
:1016400015C103B313C100B311C104B70093D6028F
:101650000895F8940091D6020E94CC060093DB0214
:101660007894089501B50093DB020091F002FEC06A
:101670000091D502005039F00A9541F00A9509F120
:101680000A95E9F1089500917D02EDCF0091D6020F
:10169000015029F00A9549F00A9569F0089500E093
:1016A0000093DB0200910303E1C000E00093DB0242
:1016B00000910603DBC000E00093DB020091090308
:1016C000D5C00091D602015029F00A9551F00A9533
:1016D00079F00895009104030093DB020091050363
:1016E000C5C0009107030093DB0200910803BEC050
:1016F00000910A030093DB0200910B03B7C0009135
:101700000E030093DB0200910D03B0C000917D0237
:101710000093DB020091EE02002311F000E801C00B
:1017200000E020917702022B0093DC02829B02C032
:1017300000E401C000E0E8EDF2E01481102B148316
:10174000839B02C000E201C000E01481102B1483CF
:10175000089503E00093DB02E8CE0091DB020093E2
:1017600001030091DC020093FD0201E001C000E0F2
:101770000093FE020895E9E6F2E074C03091D502CC
:101780000091D602E9E6F2E0008331830091D502B0
:1017900000937B020091D60200937C0210917B02A1
:1017A00006E00E94DE0C10917C0207E0E7C000E03A
:1017B0000093EF020093FE0201E000937402009197
:1017C0007702013009F4F2C000917702043009F485
:1017D000EDC00091EE02002309F4E8C000E00093A0
:1017E00077020E944D0408E006C000E00093FE026C
:1017F00004E0009377020E94230A002309F4D6C074
:101800000E94D70C089500913202002309F0CEC047
:101810000091DB02013011F401E001C000E000930F
:1018200078020091DC02002311F400EC02C0009168
:10183000DC02009379020E94B50E08950091EE0239
:101840000023E1E6F2E011811093DB0200810093B6
:10185000DC0209F008950091EF02002309F4A6C00C
:10186000EBE6F2E011811093DB0200810093DC02D1
:10187000089500E00093FE020091D5020F3408F0B5
:1018800095C000917D02002309F090C00091CB0229
:101890000C3149F00091CB02043229F00091EE02A4
:1018A000013009F483C00091D502002329F400918E
:1018B000D602043008F47AC03091D5020091D602E5
:1018C000E3E6F2E00083318300811181E9E6F2E092
:1018D000208131810217130740F4E3E6F2E0008132
:1018E0001181EFE5F2E0008311830E946D0E002369
:1018F00009F05CC006E07FCF0FEF00936D0200910E
:10190000EC02013091F40091D6020F730093CB02E8
:101910001091CB0201E00E94DE0C0091CB020093FB
:10192000D90205E000937D02089501E00093D10201
:10193000089500E000937D020E94BB0D0895009180
:10194000D602009379020895F8941091D60200917E
:10195000D5020E94DE0C789408950CE10E94CC061A
:101960000093DB020DE10E94CC0680CF1091D502DE
:101970000CE10E94DE0C1091D6020DE10E94DE0CFB
:1019800008950EE10E94CC060093DB020FE1EBCF3D
:101990001091D5020EE10E94DE0C1091D6020FE1EB
:1019A000EDCF00E00093DC020093DB02089501E03C
:1019B00000937E0200E000937F02089520911503BA
:1019C00030E0F901E95EFC4F008320911503F90135
:1019D000E95DFC4F10830091150303950F70009390
:1019E000150308950091FB020B3008F061C0F2E08E
:1019F0000F9FF001E85CFE4F05901490F0010994F0
:101A00000091FE02013009F056C027C00091FD028E
:101A10000093FC0294981BC00091FC02002309F083
:101A20004AC000E003BD959808EC0093ED0200E089
:101A300012C00CE30093FF0210C0EFEFF2E0008150
:101A40000A9500830091FF020023DDCF949A0FEFE7
:101A500003BD959A01E00093EE02EBEFF2E0008106
:101A600003950083089500E000930203F6CF35D17B
:101A7000002359F40091FD0210E0005F1F4F2091F8
:101A8000020330E002171307B4F4959808EC0093B2
:101A9000ED0200E003BDDFCF0091010300930003DE
:101AA000DCCF00910003D0CF00E00093FB0208954B
:101AB00000E00093FB0208950091150310911603B6
:101AC0000117B1F100911403005039F00A9549F063
:101AD0000A95F9F00A9509F128C0E19929C001E0B9
:101AE00015C000E00FBB0091160310E0F801E95E9D
:101AF000FC4F00810EBB00911603F801E95DFC4F1D
:101B000000810DBB04E00CBB02E00CBB009314038E
:101B10000895E1990DC003E0F9CF009116030395F4
:101B20000F700093160300E0F1CF00E00093140360
:101B3000089512E303E042DF12E304E03FDF11E027
:101B400005E03CDF0895E1E6F2E0118110937B02AD
:101B5000008100937C0200E000937D0210917B02E3
:101B600003E02CDF10917C0204E028DF10917D025D
:101B700005E024DF089500E000930F0300930903BC
:101B800000930A0300930B030093060300930703DB
:101B90000093080300937D020093030300930E0358
:101BA0000093040300930D030093050310E003E189
:101BB00005DF1091040304E101DF1091050305E145
:101BC000FDDE1091060306E1F9DE1091070307E13F
:101BD000F5DE1091080308E1F1DE1091090309E137
:101BE000EDDE10910A030AE1E9DE10910B030BE12F
:101BF000E5DE10910E0301E1E1DE10910D0302E13B
:101C0000DDDE089500E000930F03009106030093CA
:101C100009030091070300930A030091080300934E
:101C20000B03009103030093060300910403009348
:101C30000703009105030093080300917D020093C0
:101C4000030300910E030093040300910D0300931E
:101C500005031091030303E1B1DE1091040304E1D5
:101C6000ADDE1091050305E1A9DE1091060306E142
:101C7000A5DE1091070307E1A1DE1091080308E13A
:101C80009DDE1091090309E199DE10910A030AE132
:101C900095DE10910B030BE191DE0895E1E6F2E091
:101CA00000811181EFE5F2E02081318102171307F5
:101CB00028F400811181E1E6F2E006C0E1E6F2E0FD
:101CC00000811181EFE5F2E020813181021B130BCD
:101CD000E5E6F2E0008311830895BA93AA93DEDF6C
:101CE000A5E6B2E0ED91FC91339710F401E001C05C
:101CF00000E0A991B99108955B2F4A2FE1E6F2E047
:101D000000811181EFE5F2E0208131810217130794
:101D1000A0F400811181E1E6F2E020813181021B13
:101D2000130BE5E6F2E000831183A5E6B2E0ED9146
:101D3000FC913497B0F401E015C0E1E6F2E00081D7
:101D40001181EFE5F2E020813181021B130BE5E602
:101D5000F2E000831183A5E6B2E0ED91FC913397A8
:101D6000E9CF00E0A42FB52F08950091780201304B
:101D700011F401E001C000E0102F10FD949A10FF53
:101D800094980FEF03BD959A01E00093EE02009343
:101D9000F30200E00093F4020093F5020093F602D0
:101DA0000895959808EC0093ED0200E003BD0093C0
:101DB000EE020093F3020895E5EFF2E0008103954F
:101DC00000830091F502083C01F500E00093F50264
:101DD000E6EFF2E00081039500830091F602033004
:101DE000A0F00091F402053058F4DBDF03E000932B
:101DF0007D0208DF09E00E94230A002309F0D7DDF5
:101E000000E00093F6020093F402089500916E0240
:101E100010916F02011709F471C000916E020093D6
:101E20006F020E94F5020E94C9080091F30200238C
:101E300009F0C2DF0091ED02002351F0EDEEF2E077
:101E400000810A9500830091ED02002309F4959A20
:101E5000EAEFF2E000810A9500830091FA02002384
:101E6000D1F404E10093FA0200910003002329F069
:101E7000E0E0F3E000810A95008300910F03002366
:101E800009F0C0DE00916D02002329F0EDE6F2E0DA
:101E900000810A95008310DEA5DD0091F902002380
:101EA00069F1E7EFF2E00081039500830091F7020A
:101EB000083C20F100E00093F702E8EFF2E0008137
:101EC000039500830091F8020230C0F0EBE6F2E0E7
:101ED00000811181EFE5F2E00083118300E00093BF
:101EE000F8020093EF020093F902F7DE002331F4C9
:101EF00006E00E94230A002309F059DD0091CA027E
:101F0000002309F460C00BB100938102E1E8F2E024
:101F1000008107FF17C00AB1009382020CB1009341
:101F200083025098009183020093D0020091C9026D
:101F30001091D002011761F0EDECF2E00081006237
:101F4000008306C0EDECF2E000810062008350984F
:101F500000E00093CA020091CF02002369F50091CE
:101F6000DF02063028F4EDECF2E0008105FF07C047
:101F7000EDECF2E000810F7D008301E11EC00091D5
:101F8000DF0210E0F801E852FD4F00810093C90222
:101F90000091DF02053039F00091C902E8EDF2E06E
:101FA0001581100F1583EFEDF2E00081039500839A
:101FB0000091C9020CB9089505E10E94230A00238B
:101FC00099F1F5DC08950091C4021091C502011742
:101FD00059F10091C802002339F501E00093C802CD
:101FE0000091C40212E0019FF001EC57FD4F008107
:101FF0000093C6020091C402019FF001EC57FD4F0F
:10200000018101FF02C001E001C000E00093CE02A7
:102010000FE00E94230A002309F0C9DC0091C402EA
:1020200003950F710093C40208950FE90DBF00E0FE
:102030000EBFC0E8D0E00E945310002311F00E94B0
:1020400063100E9494060E947D100C947D10002461
:102050001124EFE0001F111F001C111C04161506AF
:1020600010F0041A150AEA95AAF7001F111FA00123
:102070000095109508955195419550400895FF277A
:10208000552312F4F160F7DF112312F4F09507D015
:102090000E942710F0FD03D0F1FDEDCF08951195BA
:1020A00001951040089501E0089520E002D0E9F77D
:1020B00008952D9301501040202F212B0895259134
:1020C000F8DFE9F7089580E091E2FC0105911491B1
:1020D000FC013296A591B491FC013496259134917E
:1020E000422F432B19F0F901EADF01C0DEDF06962B
:1020F00011E28C30910748F3089500008895FECFD7
:102100004A01150200007501A0000C21000000002A
:1021100000010102020203030040050005070A0353
:10212000150B061100000115011001000109011134
:102130000300000200070801100200040A16011043
:10214000020003051601100201000B060110020235
:10215000000B0601100202000B0601100203000B27
:102160000601100204000B060120020506071714E1
:102170000200010607120110010605110000010D01
:102180000000010C01100101010501100201010B09
:102190000201100201010B0201100202020B0401F4
:1021A000100102020101100202020B0401100202DE
:1021B000020B0401100203030B0201100203030BC4
:1021C0000201100104040501100204040B020110B5
:1021D0000204040B0201100105050F0110010505A1
:1021E0000E02200307060706121714023002060724
:1021F00008060A1210022002060709061210033010
:10220000010A08060B0806130330010B08060A082A
:102210000610003B266C80A9108D9B161F3472940B
:10222000A2AF2D42498779B6680C64BDC3585E5091
:10223000C9D3E6DDF0000102030607090A0B0C1002
:1022400013141617191A1B1D1E1F2021212223D01B
:10225000024A03A303D203DA03ED03F50300041ECD
:10226000042404330444044D0456049A040E053334
:1022700005D4050406190631065606DC02E302EC15
:01228000025B
:00000001FF
