:100000000C944C110C9466000C9467000C946800DE
:100010000C9469000C946A000C946B000C946C00B6
:100020000C946D000C946E000C9481000C94820072
:100030000C94CE000C94CF000C94D5000C94D600F8
:100040000C94D7000C94D8000C94D9000C94DA00CE
:100050000C94DB000001EC0D750B01790B019A0B80
:1000600001C50B02F00B071C0C01240C01870C01CD
:10007000B00C05F10D30B70C01C30C13C70C01D344
:100080000C01F20C01F80C01070D01240D01500DBB
:1000900001980D01F10D01F10D01F10D01B20D01FC
:1000A000B70D0AC00D01CB0D01D60D01E10DFB000E
:1000B0000000AC0E0B00180E230E340E480E510E2D
:1000C000610E6E0E770E940E9E0EA80E1895189562
:1000D000189518951895189518951895FA93EA9308
:1000E0001A930A931FB700916F0202BFEDE6F2E088
:1000F0000081039500831FBF09911991E991F9913E
:1001000018951895FA93EA933A932A931A930A93B7
:100110003FB70BB1009380020AB1009381020CB18A
:100120000093820200E00093CB02ECECF2E000814D
:100130000B7F0083009180020871002331F0ECEC0A
:10014000F2E000810260008321C020918102E3E897
:10015000F2E00091C40210E0000F111FE00FF11F48
:100160002183209182020091C40210E0000F111F30
:10017000F801ED57FD4F2083E4ECF2E00081039598
:100180000083E4ECF2E000810F7100833FBF09912E
:10019000199129913991E991F991189518950A9336
:1001A00001E00093C90209911895189518951895C2
:1001B000189518951895189501D0089500E00093AA
:1001C0002102009121020430C0F42FEFE5E1F2E0BA
:1001D0000091210210E0E00FF11F248B2FEFE5E1E9
:1001E000F2E00091210210E0E00FF11F208BE5E129
:1001F000F2E0048503950487E4CF00E00093160243
:100200000895102F193110F004E0089510931D0285
:1002100002E00093160200E00895BA93AA93D80171
:1002200000911602025049F00A9521F10A9509F44D
:100230004FC10A9509F469C16AC1E0EAF0E0009192
:100240001D0210E0E00FF11FE75DFE4F00810093FB
:100250001F02E0EAF0E000911D0210E00F5F1F4F67
:10026000E00FF11FE75DFE4F00810093200203E0E5
:100270000093160200911F0210912002011708F04E
:1002800022C1E0EAF0E000911F0210E0E00FF11F50
:10029000EA5FFE4F008100931E02E5E1F2E0028575
:1002A00003950287E0EAF0E000911E0210E0E00F03
:1002B000F11F048500932102E5E1F2E00185039539
:1002C0000187009121020F7000931A02E0EAF0E02A
:1002D00000911E0210E0E00FF11F0485009321023F
:1002E000E5E1F2E0018503950187009121020F709D
:1002F000009323020091210202950F7000931B02CC
:10030000E0EAF0E000911E0210E0E00FF11F04852A
:1003100000932102E5E1F2E0018503950187009158
:1003200021020F7000931C020091210202950F70B0
:100330000093240200E0009318020091180210912B
:100340001A02011740F5E0EAF0E000911E0210E009
:10035000E00FF11F048500932202E5E1F2E0018540
:10036000039501874091220205E112E020912202CB
:1003700030E0F901E056FF4F208130E0020F131FFB
:10038000F8010089401709F075CFE5E1F2E003813B
:1003900003950383D2CF00912302002341F100E0B3
:1003A0000093180200911802109123020117F8F42B
:1003B00000911E02102F139510931E02E0EAF0E048
:1003C00010E0E00FF11F048510E0000F111FF8018D
:1003D000ED51FE4F00811181F8010995002309F4C8
:1003E00049CFE5E1F2E0038103950383DBCF00E031
:1003F000009318020091180210911B02011708F0D7
:1004000041C0E0EAF0E000911E0210E0E00FF11FB1
:10041000048500932202E5E1F2E00185039501875E
:100420000091220210E0F801E056FF4F0081009396
:100430002102E5E1F2E00091210210E0E00FF11F5E
:1004400004890F3F59F420912202E5E1F2E0009186
:10045000210210E0E00FF11F248B0EC0E5E1F2E075
:100460000091210210E0E00FF11F04891091220297
:10047000011711F003E04CC0E5E1F2E003810395C0
:100480000383B8CF00911C02002309F4F3CEE0EA05
:10049000F0E000911E0210E0E00FF11F04850C93C4
:1004A00000911C02023068F0E5E1F2E0018503955D
:1004B0000187E5E1F2E007810A95078304E00093F4
:1004C000160201E025C005E00093160200E020C0FE
:1004D00000911C020023A9F0E0EAF0E000911E0266
:1004E00010E0E00FF11F04850C93E5E1F2E00185D7
:1004F00003950187E5E1F2E007810A95078301E0B2
:1005000007C003E0009316028BCE00E001C007E0B5
:10051000A991B99108958A93219700911602053007
:1005200049F08E017ADE802F8130D9F3882311F0D3
:10053000082F34C000E00093210200912102043012
:1005400048F5E5E1F2E00091210210E0E00FF11F33
:1005500004890F3FC9F0E5E1F2E00091210210E0CB
:10056000E00FF11F2489E5E1F2E00091210210E0A3
:10057000E00FF11F208B2FEFE5E1F2E00091210267
:1005800010E0E00FF11F248BE5E1F2E00485039514
:100590000487D3CF00E00093160200E021968991F2
:1005A000089500913102002331F4009132020023BA
:1005B00011F401E0089500E008952AE030E00EE033
:1005C00010E00E94F1060895E3E3F2E0208131811A
:1005D00009E010E00E94E5060895E5E3F2E02081DD
:1005E000318103E110E00E94FD06089500913B0275
:1005F0000130E9F4E7E3F2E002811381012BB9F065
:10060000E7E3F2E00281138101501040028313837B
:10061000E7E3F2E002811381012B49F4E7E3F2E022
:1006200000810E94FC0A002311F00E94F20D00914B
:100630004102013001F5EDE3F2E002811381012B6B
:10064000D1F0EDE3F2E0028113810150104002830A
:100650001383EDE3F2E002811381012B61F4EDE3FA
:10066000F2E000810E94FC0A002311F00E94F20DCA
:1006700000E000934102009147020130E9F4E3E415
:10068000F2E002811381012BB9F0E3E4F2E0028190
:1006900013810150104002831383E3E4F2E00281EE
:1006A0001381012B49F4E3E4F2E000810E94FC0A8B
:1006B000002311F00E94F20D0895EFE5F2E00081B1
:1006C0001181EBE6F2E00083118300E00093EE027B
:1006D0000E94940F002349F008E00E94FC0A0023C6
:1006E00009F44CC00E94F20D0895E1E6F2E00081A9
:1006F0001181EFE5F2E0208131810217130790F4B8
:1007000001E000937702EFE5F2E000811181E1E67C
:10071000F2E020813181021B130BE5E6F2E0008359
:100720001183089501E00093EE0200E010E0EFE590
:10073000F2E000831183EBE6F2E0008111810135E4
:1007400020E0120750F0EBE6F2E000811181005545
:100750001040EFE5F2E00083118300E000937702A0
:10076000E1E6F2E000811181EFE5F2E020813181E4
:10077000021B130BE5E6F2E00083118308950E944B
:10078000A30F002361F00E94FE0F0E94040F08E0F7
:100790000E94FC0A002309F10E94F20D0895E1E68F
:1007A000F2E000811181003020E4120770F00E9415
:1007B000FE0F07E000937C020E941F0F01E00E94E1
:1007C000FC0A002311F00E94F20DE7E6F2E000813E
:1007D00011810F5F1F4F0083118308950AE00E946B
:1007E000FC0A002311F00E94F20D08950E94940863
:1007F0000E9452070091CE02002329F401E010E08C
:100800000E94490B04C009E110E00E94530B00B3A1
:10081000089501E00E94FC0A002311F00E94F20DED
:1008200008950E94FE0F01E0009377020CEC009304
:1008300078020E94E00F089500E00093760201E044
:100840000093730200917402002331F000E00093E2
:10085000740200E0009373020091EE02002359F04D
:1008600001E00093F80200E00093F7020093F60223
:1008700000E000937302089502E0009376020E9464
:10088000FA0E089501E00093790200E010E0E7E637
:10089000F2E0008311830FEF0093780203BD0E9402
:1008A000E00F089501E0009376020E94FA0E009195
:1008B0003102002311F407D0089500913202002381
:1008C00009F4AFDF089500E0009377020CEC009389
:1008D00078020E94E00F08950E94FE0F00E000934E
:1008E0004102089500917602023079F40E94FE0FD1
:1008F00002E000937C020E941F0F01E00E94FC0AAC
:100900000023C9F10E94F20D089503E000937602DE
:100910000FEF0093780200EA1FE0E3E3F2E00083C8
:10092000118300917702002341F007E00E94FC0A46
:10093000002351F00E94F20D07C002E00E94FC0A61
:10094000002311F00E94F20D07E20093D7020091FC
:10095000CA020093D80203B50093D90206B30093EC
:10096000DA0200B30093DB0202E10E94FC0A0023DA
:1009700011F00E94F20D0895A895009175020023D0
:1009800029F0E5E7F2E000810A9500830091730207
:10099000002349F100E000937302E0E7F2E00081F8
:1009A0000395008300917002002371F4E1E7F2E007
:1009B00000810395008300917102002329F4E2E78E
:1009C000F2E00081039500831091700208E00E941C
:1009D000F90D1091710209E00E94F90D1091720257
:1009E0000AE00E94F90D00917F02002331F504E135
:1009F00000937F02EEE7F2E000810395008300910F
:100A00003102013021F000913202013011F4C09A1C
:100A1000089500917602002311F0C0980895009186
:100A20007E0210917D020117D0F016B301E001277C
:100A300008BB00E000937E020895EFE7F2E000813A
:100A40000A95008300917F02002349F4009131024E
:100A5000013021F000913202013009F4C09808956C
:100A60000091D1020F3F31F00091D1021091CA02E2
:100A7000011781F400E00093D0020E945B0B00910B
:100A8000D002002339F402E10E94FC0A002311F095
:100A90000E94F20DECECF2E000810D7F0083ECECA3
:100AA000F2E000810E7F008300E00093DD0200E0B1
:100AB0000093C602089500E00093C702ECECF2E058
:100AC000008101FF11C0ECECF2E000810D7F00839A
:100AD000ECECF2E000810E7F008300E00093DD0289
:100AE00000E00093C60208950091CD02002379F042
:100AF0000091C5020093C6020093D10201E0009369
:100B0000DD02ECECF2E00081016000830895ECEC82
:100B1000F2E0008100FF99C00091DD02053008F08D
:100B200082C00091C502E6ECF2E01081100F108344
:100B30002091C5020091DD0210E0F801EF52FD4F57
:100B40002083EDEDF2E00081039500830091C30264
:100B50001091C402011709F478C00091C30210E09B
:100B6000000F111FF801ED57FD4F00810093C502E2
:100B7000E3E8F2E00091C30210E0000F111FE00F64
:100B8000F11F018101FF02C001E001C000E00093FC
:100B9000CD02E3ECF2E0008103950083E3ECF2E0A8
:100BA00000810F7100830091CD02002379F0009144
:100BB000C5020093C6020093D10201E00093DD025A
:100BC000ECECF2E000810160008308950091DD0209
:100BD0000530B0F40091C502E6ECF2E01081100F90
:100BE00010832091C5020091DD0210E0F801EF5260
:100BF000FD4F2083EDEDF2E0008103950083A6CF49
:100C0000ECECF2E000810E7F00830091C6021091AF
:100C1000C5020117D1F400E10E94FC0A0023A9F0EB
:100C20000E94F20D0895ECECF2E000810E7F00834B
:100C30000091C6021091C502011739F400E10E942B
:100C4000FC0A002311F00E94F20D08950091DE02CB
:100C500010E0F801E952FD4F00810093C8020091B5
:100C6000CE02002389F40091DE020530E8F4009101
:100C7000C802E7EDF2E01581100F1583EEEDF2E00A
:100C800000810395008310C00091DE02043060F4FF
:100C90000091C802E7EDF2E0148110271483EEED15
:100CA000F2E0008103950083ECECF2E000810F7D1F
:100CB00000830091C8020CB9089506B30F7E08BBEB
:100CC000579AECECF2E00081077F00830091C702A5
:100CD000002339F00FE00E94FC0A002311F00E946B
:100CE000F20D0895579806B3006108BBECECF2E0F2
:100CF00000810860008300E00093DE020091CE02D4
:100D0000002329F400E00093DC02509A089500E0EB
:100D10000093DB020895ECECF2E0008105FF08C0CF
:100D200001E10E94FC0A002351F10E94F20D089596
:100D30000091CE02002381F40091DE02053020F004
:100D400001E10E94FC0A089508E10E94FC0A0023C8
:100D5000B1F00E94F20D08950091DE02043040F0DF
:100D600001E10E94FC0A002351F00E94F20D089557
:100D700008E10E94FC0A002311F00E94F20D089580
:100D8000F8940091CB020330C8F0ECECF2E0008163
:100D9000046000830091CE02002341F407E10E9429
:100DA000FC0A002381F00E94F20D0DC004E10E94B4
:100DB000FC0A002341F00E94F20D05C0EBECF2E0CA
:100DC00000810395008378940895EDE3F2E00083B9
:100DD0001183EDE3F2E02283338340E0409341024C
:100DE0000895E7E3F2E000831183E7E3F2E0228372
:100DF000338341E040933B020895E3E4F2E0008353
:100E00001183E3E4F2E02283338341E0409347021D
:100E10000895FFCF8A932297F8940E942A090E948E
:100E20008A080E94DC000E94FA0A00E00E94FC0A84
:100E300078940E9436108E010E94200B0E3FC9F359
:100E400008810E940101802F882311F00881E1DFD1
:100E50008E010F5F1F4F0E940D01802F813061F4C2
:100E6000098110E0000F111FF801EB51FE4F0081C6
:100E70001181F8010995ECCF882311F0082FC9DF03
:100E80000E948B02802F8823A1F2082FC2DFD1CFCE
:100E9000102FE199FECF00E00FBB1EBB01E00CBBA1
:100EA0000DB3089501E00E9448070093CA02009123
:100EB000CA02063240F40091CA020F3F21F00091AD
:100EC000CA02002319F403E60093CA0202E00E945A
:100ED00048070093CE020091CE02023020F4009128
:100EE000CE020F3F19F400E00093CE0200E0009321
:100EF000CE0206E00E94480700937A0207E00E94B3
:100F0000480700937B0230917A0220E000917B0237
:100F100010E0020F131FE9E6F2E00083118303E003
:100F20000E94480700937A0204E00E944807009359
:100F30007B0205E00E94480700937C0200917C023E
:100F40000023B9F4829915C0839913C010917A02D5
:100F500000E0E1E6F2E00083118300917B0210E003
:100F6000E1E6F2E020813181200F311F20833183BF
:100F700009C000E010E0E1E6F2E00083118306E042
:100F800000937C0208E00E9448070093700209E089
:100F90000E944807009371020AE00E9448070093EC
:100FA000720200917202007C002339F000E000938D
:100FB0007202009371020093700203E10E944807DD
:100FC0000093020304E10E9448070093030305E134
:100FD0000E94480700930403E3E0F3E0008107FF69
:100FE0000AC000E00093020300930303009304038C
:100FF00001E000930E0306E10E94480700930503F9
:1010000007E10E9448070093060308E10E94480791
:1010100000930703E6E0F3E0008107FF07C000E06C
:1010200000930503009306030093070309E10E9460
:101030004807009308030AE10E9448070093090348
:101040000BE10E94480700930A03E9E0F3E0008106
:1010500007FF07C000E00093080300930903009313
:101060000A0301E10E94480700930D0302E10E9478
:10107000480700930C0300910C0300930B03EDE071
:10108000F3E0008107FF0AC000E000930D03009326
:101090000C0310910D0301E10E94F90D00910C0366
:1010A00000930B03ECE0F3E00081039500830091D3
:1010B0000B0310910C03011729F4ECE0F3E000811D
:1010C0000395008310910C0302E10E94F90D009139
:1010D0000C03002351F4EDE0F3E00081039500835D
:1010E00010910D0301E10E94F90D0CE10E944807E7
:1010F00000930F030DE10E944807009310030EE1D7
:101100000E944807009311030FE10E9448070093D3
:101110001203089500E003BDC39AC098949895986F
:1011200008EC0093EC02089500E00093EC0200EF5D
:1011300010E0E3E3F2E00083118303E010E0E5E375
:10114000F2E00083118300E000936D0200E0009361
:101150006E0200E00093C4020093C30200E000931B
:10116000C90200E00093C70205E000937D0200E0A1
:1011700000937E0202E00093DF0202E00093E002AF
:1011800002E00093E1020AE00093E2020AE0009329
:10119000E30200E00093E4020AE00093E50200E0CD
:1011A0000093E60200E0009331020AE00093E702B8
:1011B00000E00093E80200E00093320200E00093B8
:1011C000E9020CE30093EA0200E00093EB0201E085
:1011D0000093740201E00093770200E00093ED02B7
:1011E00000E00093EE0200E000930E0308EC009391
:1011F000750200E010E0E6E3F3E00383148300E00F
:1012000010E0E6E3F3E00087118700E010E0E6E39A
:10121000F3E00587168700E010E0E6E3F3E0028BD9
:10122000138B00E010E0E6E3F3E0078B108F00E0A3
:1012300010E0E6E3F3E0048F158F00E010E0E6E352
:10124000F3E001A312A300E010E0E6E3F3E006A35D
:1012500017A3089504B70093EF0204B70E7F04BFED
:1012600004B70D7F04BF04B70B7F04BF04B7077F2B
:1012700004BF04B70F7E04BF04B7006804BF00E0DA
:101280000ABB09E507BB00E004BB00EB01BB0FE0B4
:1012900001BD02E003BF08E000936F0200916F02FE
:1012A00002BF09B7016009BF05B70A6005BF02E7C1
:1012B00005BD00E003BD00E002BD0895B19B1EC066
:1012C0000091DF02002389F0EFEDF2E000810A9542
:1012D00000830091DF02002341F401E00093E1026A
:1012E00002E00093E00201E008950091DF02002394
:1012F00019F402E00093E00200E008950091E0029A
:10130000002389F0E0EEF2E000810A95008300916D
:10131000E002002341F400E00093E10202E00093C8
:10132000DF0201E008950091E002002319F402E0D9
:101330000093DF0200E0089506B30093F10200B3CA
:101340000093F002BBDF0023E1F1E3EFF2E0008164
:101350000395008300917502002399F584990EC0CE
:10136000E1E6F2E000811181012B41F0E1E6F2E0DB
:10137000008111810150104000831183849B08C0BB
:10138000E1E6F2E0008111810F5F1F4F00831183BE
:101390000BE00E94FC0A002311F00E94F20D009164
:1013A000FB02002329F0EBEFF2E000810A950083B5
:1013B0000091FD02002329F0E1E0F3E000810395B4
:1013C0000083B29B1AC00091E202002319F40AE0E4
:1013D0000093E3020091E202002379F0E2EEF2E0F2
:1013E00000810A9500830091E202002331F401E0BC
:1013F0000093E4020AE00093E302B2991AC000915C
:10140000E302002319F40AE00093E2020091E302F0
:10141000002379F0E3EEF2E000810A950083009169
:10142000E302002331F400E00093E4020AE00093B9
:10143000E202829B21C00091E502002319F40AE038
:101440000093E6020091E5020023B1F0E5EEF2E040
:1014500000810A9500830091E502002369F401E010
:10146000009331020AE00093E60203E00E94FC0AC6
:10147000002311F00E94F20D829933C00091E60220
:10148000002319F40AE00093E5020091E60200232C
:1014900041F1E6EEF2E000810A9500830091E60258
:1014A0000023F9F400E0009331020AE00093E50222
:1014B0000CE00E94FC0A002311F00E94F20D009142
:1014C000ED02002371F000E010E0E1E6F2E00083BD
:1014D000118300E000937C0210917C0205E00E94E1
:1014E000F90D839B26C00091E702002319F40AE05E
:1014F0000093E8020091E7020023D9F0E7EEF2E062
:1015000000810A9500830091E702002391F401E035
:10151000009332020AE00093E80205E00E94FC0A10
:10152000002311F00E94F20D04E000937C020E945F
:101530001F0F83991AC00091E802002319F40AE0F2
:101540000093E7020091E802002379F0E8EEF2E070
:1015500000810A9500830091E802002331F400E045
:10156000009332020AE00093E702869B18C00091C4
:10157000E902002321F40CE30093EA020895E9EE66
:10158000F2E000810A9500830091E902002389F5C9
:1015900000E00093EB020CE30093EA02089500914F
:1015A000EA02002321F40CE30093E9020895EAEE35
:1015B000F2E000810A9500830091EA020023C9F459
:1015C00001E00093EB020CE30093E9020091760244
:1015D000002341F40DE00E94FC0A002351F00E9418
:1015E000F20D08950AE00E94FC0A002311F00E9407
:1015F000F20D089548D00895682F802F20915D0244
:1016000030E000915E0210E00F5F1F4F201731079E
:1016100011F40DEF13C000915E0210E0F801E75BDA
:10162000FD4F808300915E0210E00F5F1F4F44E189
:1016300050E00E94761140935E0200E0862F0895EC
:10164000392F282FC80100915D0210915E02011709
:1016500011F40EEF15C000915D0210E0F801E75B98
:10166000FD4F0081FC01008300915D0210E00F5FDF
:101670001F4F44E150E00E94761140935D0200E06C
:10168000822F932F089500E000935E0200935D0285
:1016900008959801232F20BD202F29B92CED2AB9B8
:1016A0002EE820BD08959801232F20BD202F29B9B1
:1016B00028ED2AB908950091D2020093D702009133
:1016C000CA020093D8020091D3020093D90200917C
:1016D000D4020093DA020091D5020093DB0200915C
:1016E000D302E4E5F0E00C94931104E00093DB02F4
:1016F00008950091D402005049F00A9559F00A95D6
:1017000069F00A9579F0095089F008950091D502A1
:101710000BBB08950091D50208BB08950091D50236
:1017200005BB08950091D50202BB08950091D50232
:1017300004BF08950091D402005049F00A9569F061
:101740000A9589F00A95A9F00950C9F0089509B3DE
:101750001091D502102B1BBB089506B31091D50232
:10176000102B18BB089503B31091D502102B15BB95
:10177000089500B31091D502102B12BB089500916B
:10178000D50214B7102B14BF08950091D402005055
:1017900049F00A9569F00A9589F00A95A9F009506F
:1017A000C9F0089509B31091D50210231BBB089509
:1017B00006B31091D502102318BB089503B31091FE
:1017C000D502102315BB089500B31091D502102344
:1017D00012BB08950091D50214B7102314BF0895C9
:1017E0000091D4020058F9F0005849F00A9559F0D8
:1017F0000A9569F00A9579F0095089F0089509B3BE
:101800000093DB02089506B30093DB02089503B34F
:101810000093DB02089500B30093DB02089504B740
:101820000093D5020895F8940091D5020E944807CC
:101830000093DA027894089501B50093DA020091DA
:10184000EF020093DB0208950091D402005041F0B2
:101850000A9579F00A9571F10A9509F44FC0089537
:1018600000917C020093DA020091EF020093DB0208
:1018700008950091D502015029F00A9559F00A9572
:1018800089F0089500E00093DA02009102030093CA
:10189000DB02089500E00093DA0200910503009353
:1018A000DB02089500E00093DA0200910803009340
:1018B000DB0208950091D502015029F00A9561F0EC
:1018C0000A9599F00895009103030093DA020091BC
:1018D00004030093DB020895009106030093DA02EB
:1018E000009107030093DB02089500910903009320
:1018F000DA0200910A030093DB02089500910D03C0
:101900000093DA0200910C030093DB02089500912A
:101910007C020093DA02009176020093DB020091D0
:10192000ED02002311F000E801C000E0E7EDF2E075
:101930001481102B1483829B02C000E401C000E0DC
:10194000E7EDF2E01481102B1483839B02C000E2C8
:1019500001C000E0E7EDF2E01481102B148308953C
:1019600002E00093DA0208E00093DB0208950091A0
:10197000DA02009300030091DB020093FC0201E015
:101980000093FD02089500E00093FD020895E9E64A
:10199000F2E01181012F0093DA02E9E6F2E0008122
:1019A0000093DB0208953091D40220E00091D5022B
:1019B00010E0020F131FE9E6F2E0008311830091AB
:1019C000D40200937A020091D50200937B02109119
:1019D0007A0206E00E94F90D10917B0207E00E9456
:1019E000F90D089500E00093FD020E94FE0F089596
:1019F00000E00093FD0204E00093760204E00E9400
:101A0000FC0A002309F4EDC00E94F20D0895009134
:101A10003202002309F0E5C00091DA02013011F42E
:101A200001E001C000E0009377020091DB02002397
:101A300021F400EC0093780204C00091DB020093D3
:101A400078020E94E00F08950091ED02002361F0FA
:101A5000E1E6F2E01181012F0093DA02E1E6F2E023
:101A600000810093DB020895E1E6F2E01181012F8D
:101A70000093DA02E1E6F2E000810093DB020091DC
:101A8000EE02002309F4ADC0EBE6F2E01181012F74
:101A90000093DA02EBE6F2E000810093DB020895A6
:101AA00000E00093FD020091D4020F3408F099C0C9
:101AB00000917C02002309F094C00091ED02002304
:101AC00009F08FC00091D402002329F40091D502BF
:101AD000043008F486C03091D40220E00091D50291
:101AE00010E0020F131FE3E6F2E000831183E3E648
:101AF000F2E000811181E9E6F2E0208131810217F4
:101B0000130740F4E3E6F2E000811181EFE5F2E033
:101B1000008311830E94940F002309F062C006E045
:101B20000E94FC0A002309F45CC00E94F20D089593
:101B30000091EB02013091F40091D5020F730093F4
:101B4000CA021091CA0201E00E94F90D0091CA0276
:101B50000093D80205E000937C02089501E0009311
:101B6000D00208950091D502009378020895F89468
:101B70001091D5020091D4020E94F90D7894089535
:101B80000CE10E9448070093DA020DE10E94480729
:101B90000093DB0208951091D4020CE10E94F90D2C
:101BA0001091D5020DE10E94F90D08950EE10E94F9
:101BB00048070093DA020FE10E9448070093DB0216
:101BC00008951091D4020EE10E94F90D1091D502F2
:101BD0000FE10E94F90D089500E00093DB020093ED
:101BE000DA02089501E000937D0200E000937E0296
:101BF00008952091140330E0F901EA5EFC4F008360
:101C00002091140330E0F901EA5DFC4F1083E4E118
:101C1000F3E0208123952083E4E1F3E020812F701D
:101C2000208308950091FA02E0EBF0E00C94931108
:101C30000091FD02013009F092C0EAEFF2E000816C
:101C40000395008308950091FC020093FB02949891
:101C50000FEF03BD959A01E00093ED02EAEFF2E089
:101C600000810395008308950091FB02002309F091
:101C700076C000E003BD959808EC0093EC0200E00C
:101C80000093ED02EAEFF2E00081039500830895EE
:101C90000CE30093FE02EAEFF2E00081039500837B
:101CA0000895EEEFF2E000810A9500830091FE02B4
:101CB000002309F054C0EAEFF2E0008103950083AD
:101CC0000895949A0FEF03BD959A01E00093ED02F9
:101CD000EAEFF2E0008103950083089500E00093AD
:101CE0000103EAEFF2E000810395008308951CD11F
:101CF000002359F40091FC0210E0005F1F4F209177
:101D0000010330E00217130754F5959808EC00938F
:101D1000EC0200E003BD00E00093ED02EAEFF2E028
:101D20000081039500830895009100030093FF0252
:101D3000EAEFF2E000810395008308950091FF022D
:101D4000002369F4EAEFF2E000810395008308952F
:101D500000E00093FA02089500E00093FA0208956B
:101D60000091140310911503011709F442C000916A
:101D70001303005039F00A9559F00A9519F10A95A4
:101D800039F134C0E19935C001E00093130308959F
:101D900000E00FBB0091150310E0F801EA5EFC4F74
:101DA00000810EBB0091150310E0F801EA5DFC4FC5
:101DB00000810DBB04E00CBB02E00CBB02E0009311
:101DC00013030895E19915C003E0009313030895E8
:101DD000E5E1F3E0008103950083E5E1F3E00081B4
:101DE0000F70008300E000931303089500E0009358
:101DF0001303089512E303E0FCDE12E304E0F9DECE
:101E000011E005E0F6DE0895E1E6F2E01181012F30
:101E100000937A02E1E6F2E0008100937B0200E0A9
:101E200000937C0210917A0203E0E3DE10917B02C2
:101E300004E0DFDE10917C0205E0DBDE089500E0C7
:101E400000930E030091050300930803009106031D
:101E5000009309030091070300930A030091020312
:101E6000009305030091030300930603009104030C
:101E70000093070300917C020093020300910D037D
:101E80000093030300910C030093040310910203D9
:101E900003E1AFDE1091030304E1ABDE1091040314
:101EA00005E1A7DE1091050306E1A3DE109106030C
:101EB00007E19FDE1091070308E19BDE1091080304
:101EC00009E197DE109109030AE193DE10910A03FC
:101ED0000BE18FDE0895E1E6F2E000811181EFE58C
:101EE000F2E0208131810217130778F4EFE5F2E088
:101EF00000811181E1E6F2E020813181021B130BA8
:101F0000E5E6F2E0008311830895E1E6F2E0008166
:101F10001181EFE5F2E020813181021B130BE5E630
:101F2000F2E0008311830895BA93AA93D4DFA5E663
:101F3000B2E0ED91FC91339710F401E001C000E0B4
:101F4000A991B99108955B2F4A2FE1E6F2E0008153
:101F50001181EFE5F2E02081318102171307B0F41F
:101F6000EFE5F2E000811181E1E6F2E020813181CC
:101F7000021B130BE5E6F2E000831183A5E6B2E055
:101F8000ED91FC913497C0F401E017C0E1E6F2E076
:101F900000811181EFE5F2E020813181021B130BFA
:101FA000E5E6F2E000831183A5E6B2E0ED91FC9155
:101FB000339710F401E001C000E0A42FB52F08957D
:101FC00000917702013011F401E001C000E0102F10
:101FD00010FD949A10FF94980FEF03BD959A01E0BD
:101FE0000093ED0201E00093F20200E00093F3029F
:101FF00000E00093F4020093F5020895959808EC30
:102000000093EC0200E003BD00E00093ED0200E06D
:102010000093F2020895E4EFF2E00081039500835B
:102020000091F402083C09F500E00093F402E5EFAA
:10203000F2E00081039500830091F5020330A8F0DF
:102040000091F302053058F4D9DF03E000937C02DD
:10205000F6DE09E00E94FC0A002309F0C3DD00E07F
:102060000093F50200E00093F302089500916D02E1
:1020700010916E02011709F46AC000916D0200937D
:102080006E020E94F6020E949C090091F202002357
:1020900009F0C1DF0091EC02002351F0ECEEF2E018
:1020A00000810A9500830091EC02002309F4959ABF
:1020B000E9EFF2E000810A9500830091F902002324
:1020C00089F404E10093F9020091FF02002329F052
:1020D000EFEFF2E000810A95008300910E030023E8
:1020E00009F0ADDE3DDE9EDD0091F802002379F1BE
:1020F000E6EFF2E00081039500830091F602083CD0
:1021000030F100E00093F602E7EFF2E00081039582
:1021100000830091F7020230D0F0EBE6F2E000819C
:102120001181EFE5F2E00083118300E00093F702F4
:1021300000E00093EE0200E00093F802F5DE0023D9
:1021400031F406E00E94FC0A002309F04BDD009107
:10215000C902002309F466C00BB100938002E0E8D5
:10216000F2E0008107FF17C00AB1009381020CB1B1
:10217000009382025098009182020093CF02009156
:10218000C8021091CF02011761F0ECECF2E000817F
:102190000062008306C0ECECF2E000810062008384
:1021A000509800E00093C9020091CE02002399F5F7
:1021B0000091DE02063028F4ECECF2E0008105FF2D
:1021C0000DC0ECECF2E000810F7D008301E10E9484
:1021D000FC0A002309F45FC005DD08950091DE02CA
:1021E00010E0F801E952FD4F00810093C802009110
:1021F000DE02053039F00091C802E7EDF2E015810A
:10220000100F1583EEEDF2E000810395008300913D
:10221000C8020CB9089505E10E94FC0A0023D9F117
:10222000E1DC08950091C3021091C402011799F1F5
:102230000091C702002379F501E00093C7020091E5
:10224000C30210E0000F111FF801ED57FD4F008190
:102250000093C502E3E8F2E00091C30210E0000F32
:10226000111FE00FF11F018101FF02C001E001C059
:1022700000E00093CD020FE00E94FC0A002309F069
:10228000B1DCE3ECF2E0008103950083E3ECF2E0E3
:1022900000810F71008308950FE90DBF00E00EBFAC
:1022A000C0E8D0E00E94D811002311F00E94E8118C
:1022B0000E940A070E9402120C94021200241124A8
:1022C000EFE0001F111F001C111C0416150610F072
:1022D000041A150AEA95AAF7001F111FA00100951C
:1022E000109508955195419550400895FF27552325
:1022F00012F4F160F7DF112312F4F09507D00E9479
:102300005E11F0FD03D0F1FDEDCF0895119501951B
:10231000104008957591659155914591159011FA68
:10232000259035900895F9DF041B10E003C0F4DF19
:10233000041B150B20E030E005C0ECDF041B150B7F
:10234000260B370BB8F010FC17C045910590E00F35
:10235000F11F0417100540E02407340758F436F441
:1023600004910024F101E01BF0090994E00FF11F32
:1023700025903590F101099411F4D6F7F1CF3196FB
:102380000EF0319650E060E070E045914B3F48F030
:1023900089F34F3F29F04E3F11F0759165915591AA
:1023A0004591041B150B260B370B39F318F3E7CFB8
:1023B00001E0089520E002D0E9F708952D9301503F
:1023C0001040202F212B08952591F8DFE9F708957B
:1023D0008AE094E2FC0105911491FC013296A591EA
:1023E000B491FC01349625913491422F432B19F07E
:1023F000F901EADF01C0DEDF069614E286319107BB
:1024000048F3089500008895FECF490115020000A9
:102410007501A00016240000000000010102020264
:1024200003030040050005070A03150B0611000011
:10243000011501100100010901110300000200074C
:102440000801100200040A1601100200030516011B
:10245000100201000B0601100202000B060110021F
:1024600002000B0601100203000B0601100204001B
:102470000B060120020506071714020001060712C9
:102480000110010605110000010D0000010C0110F2
:102490000101010501100201010B020110020101FD
:1024A0000B0201100202020B0401100102020101E1
:1024B000100202020B0401100202020B04011002BE
:1024C00003030B0201100203030B020110010404B9
:1024D0000501100204040B0201100204040B0201A6
:1024E000100105050F01100105050E022003070666
:1024F0000706121714023002060708060A12100215
:1025000020020607090612100330010A08060B080C
:1025100006130330010B08060A080610003B266C60
:1025200080A9108D9B161F347294A2AF2D4249874B
:1025300079B6680C64BDC3585E50C9D3E6DDF000BF
:102540000102030607090A0B0C1013141617191AB7
:102550001B1D1E1F2021212223D1025D03BF03EE7C
:1025600003F603090411041C043C044204520463EE
:10257000046C047204BC0430055B0526065D06721B
:0B258000068B06C006DD02E402ED023F
:00000001FF
